:020000040000fa
:080000000002040000000000f2
:020000040000fa
:10000800d2020000d2020000d2020000d202000098
:10001800d202000052030000d2020000d202000007
:10002800d2020000d2020000d2020000d202000078
:100038004a030000d2020000d2020000d2020000ef
:1000480042030000d2020000d2020000d2020000e7
:10005800d2020000d2020000d2020000d202000048
:10006800d2020000d2020000d2020000d202000038
:10007800d2020000d2020000d2020000d202000028
:10008800d2020000d2020000d2020000d202000018
:020000040000fa
:100400000f0021008efc2d000e018800000000006e
:10041000000020000000e000020032000001200087
:10042000200288000c000700803a20000100200014
:100430000f000700000020000000e0000200320072
:100440000000020000000000d602020000000000d0
:100450000040da000000fe00200020000000e00064
:100460000200320010002000900188000000060009
:10047000a1028800800078000000eb001a0037001d
:10048000e280400054a0b4009101ba00e280400034
:1004900054a0b4009102ba00e280400054a0b4001d
:1004a0000002eb00472bde00f507b200a601880032
:1004b000602ce10008003a000049eb000201e8006e
:1004c000020039003420ec0002f0a0008301e900b2
:1004d000f9ff3e00040037006128e100010032000e
:1004e0000082eb00040007001101ba000200e000e6
:1004f000e3ff3a000000060004d0a300e20f490029
:100500001c003900810278003549ba000201e80078
:10051000020039003420ec0002f0a0008301e90061
:100520000f0032002549ba000201e800020039003c
:100530003420ec0002f0a0008301e9000800320042
:100540000400e0000600320015c9ba000201e8000c
:10055000020039003420ec0002f0a0008301e90021
:100560008180e80054a0b4000300e000e2ff3a00fc
:10057000000006009102ba00055978008301e900e5
:10058000f7ff3200c82ade00055978008301e90030
:10059000f3ff32000400e000f1ff320011d9ba008d
:0c05a000eeff37000040da000000fe0013
:020000040000fa
:1005ac000000fa003f00070001cba90001aba90035
:1005bc00016ba900043020006458880084002000de
:1005cc0014588800940020007458880074588000d7
:1005dc00045880000400a1000410a10004588800f5
:1005ec00045880000440a1000450a1000458880065
:1005fc00c4fe2d00245888000002eb0034588800fb
:10060c000002eb00445888000002eb0054588800ac
:10061c0054588000018ba900144280000400a000f3
:10062c000410a0000420a100144288001442800091
:10063c000088a9002088a80001eba8000002eb00ac
:10064c0054088800940880000440a0000450a000c6
:10065c009408880004e22400740888000108a900aa
:10066c002108a80013e1a800000000000000000011
:10067c0000000000fcff37000000fa000108a90090
:10068c000080fa00004006000000fa000088a90073
:10069c000080fa00004006000000fa00c0a8a90083
:1006ac00ffff37000000fa00253a800004fe2f00ff
:1006bc0004826200243a8800a4032000343a8800a3
:1006cc00243a80000460a1000470a100243a880040
:1006dc003600200084072000a50920003774200074
:1006ec00844b7800854b7800864b780016002000f0
:1006fc00640420007505200027742000844b7800ca
:10070c00854b7800864b780000000000153a80007d
:10071c00040027008482620004002300848f5200ae
:10072c00faff3a0000000000153a80000402200095
:10073c0004826200e00f5200fbff32000080fa00de
:04074c0000000600a3
:020000040000fa
:10075000ecdf00001400000080000000d8df000083
:0c076000140000008000000000000000f9
:020000040000fa
:0200000401f009
:04000800cfffff0027
:020000040000fa
:0200000401f009
:04000c0078ffff007a
:020000040000fa
:0200000401f009
:0400100059ffff0095
:020000040000fa
:0200000401f009
:0400140060ffff008a
:020000040000fa
:0200000401f009
:04001800ffffff00e7
:020000040000fa
:0200000401f009
:04001c00dfffff0003
:020000040000fa
:0200000401f009
:04002000cfffff000f
:00000001FF
