:020000040000fa
:080000000002040000000000f2
:020000040000fa
:04000800e002000012
:020000040000fa
:04000c00e00200000e
:020000040000fa
:04001000e00200000a
:020000040000fa
:04001400e002000006
:020000040000fa
:04001800e002000002
:020000040000fa
:04001c00e0020000fe
:020000040000fa
:04002000e0020000fa
:020000040000fa
:04002400e0020000f6
:020000040000fa
:04002800e0020000f2
:020000040000fa
:04002c00e0020000ee
:020000040000fa
:04003000e0020000ea
:020000040000fa
:04003400e0020000e6
:020000040000fa
:04003800e0020000e2
:020000040000fa
:04003c00e0020000de
:020000040000fa
:04004000e0020000da
:020000040000fa
:04004400e0020000d6
:020000040000fa
:04004800e0020000d2
:020000040000fa
:04004c00e0020000ce
:020000040000fa
:04005000e0020000ca
:020000040000fa
:04005400e0020000c6
:020000040000fa
:04005800e0020000c2
:020000040000fa
:04005c006c0500002f
:020000040000fa
:04006000e0020000ba
:020000040000fa
:04006400e0020000b6
:020000040000fa
:04006800e0020000b2
:020000040000fa
:04006c00e0020000ae
:020000040000fa
:04007000e0020000aa
:020000040000fa
:04007400e0020000a6
:020000040000fa
:04007800e0020000a2
:020000040000fa
:04007c007405000007
:020000040000fa
:04008000e00200009a
:020000040000fa
:04008400e002000096
:020000040000fa
:04008800e002000092
:020000040000fa
:04008c00e00200008e
:020000040000fa
:04009000e00200008a
:020000040000fa
:04009400e002000086
:020000040000fa
:04009800e002000082
:020000040000fa
:04009c00e00200007e
:020000040000fa
:0400a000e00200007a
:020000040000fa
:0400a400e002000076
:020000040000fa
:0400a800e002000072
:020000040000fa
:0400ac00e00200006e
:020000040000fa
:0400b000e00200006a
:020000040000fa
:0400b400e002000066
:020000040000fa
:0400b800e002000062
:020000040000fa
:0400bc00e00200005e
:020000040000fa
:0400c000e00200005a
:020000040000fa
:0400c400e002000056
:020000040000fa
:0400c800e002000052
:020000040000fa
:0400cc00e00200004e
:020000040000fa
:0400d000e00200004a
:020000040000fa
:0400d400e002000046
:020000040000fa
:0400d800e002000042
:020000040000fa
:0400dc00e00200003e
:020000040000fa
:0400e000e00200003a
:020000040000fa
:0400e400e002000036
:020000040000fa
:0400e800e002000032
:020000040000fa
:0400ec00e00200002e
:020000040000fa
:0400f000e00200002a
:020000040000fa
:0400f400e002000026
:020000040000fa
:0400f800e002000022
:020000040000fa
:0400fc00e00200001e
:020000040000fa
:04010000e002000019
:020000040000fa
:04010400e002000015
:020000040000fa
:04010800e002000011
:020000040000fa
:04010c00e00200000d
:020000040000fa
:04011000e002000009
:020000040000fa
:04011400e002000005
:020000040000fa
:04011800e002000001
:020000040000fa
:04011c00e0020000fd
:020000040000fa
:04012000e0020000f9
:020000040000fa
:04012400e0020000f5
:020000040000fa
:04012800e0020000f1
:020000040000fa
:04012c00e0020000ed
:020000040000fa
:04013000e0020000e9
:020000040000fa
:04013400e0020000e5
:020000040000fa
:04013800e0020000e1
:020000040000fa
:04013c00e0020000dd
:020000040000fa
:04014000e0020000d9
:020000040000fa
:04014400e0020000d5
:020000040000fa
:04014800e0020000d1
:020000040000fa
:04014c00e0020000cd
:020000040000fa
:04015000e0020000c9
:020000040000fa
:04015400e0020000c5
:020000040000fa
:04015800e0020000c1
:020000040000fa
:04015c00e0020000bd
:020000040000fa
:04016000e0020000b9
:020000040000fa
:04016400e0020000b5
:020000040000fa
:04016800e0020000b1
:020000040000fa
:04016c00e0020000ad
:020000040000fa
:04017000e0020000a9
:020000040000fa
:04017400e0020000a5
:020000040000fa
:04017800e0020000a1
:020000040000fa
:04017c00e00200009d
:020000040000fa
:04018000e002000099
:020000040000fa
:04018400e002000095
:020000040000fa
:04018800e002000091
:020000040000fa
:04018c00e00200008d
:020000040000fa
:04019000e002000089
:020000040000fa
:04019400e002000085
:020000040000fa
:04019800e002000081
:020000040000fa
:04019c00e00200007d
:020000040000fa
:0401a000e002000079
:020000040000fa
:0401a400e002000075
:020000040000fa
:0401a800e002000071
:020000040000fa
:0401ac00e00200006d
:020000040000fa
:0401b000e002000069
:020000040000fa
:0401b400e002000065
:020000040000fa
:0401b800e002000061
:020000040000fa
:0401bc00e00200005d
:020000040000fa
:0401c000e002000059
:020000040000fa
:0401c400e002000055
:020000040000fa
:0401c800e002000051
:020000040000fa
:0401cc00e00200004d
:020000040000fa
:0401d000e002000049
:020000040000fa
:0401d400e002000045
:020000040000fa
:0401d800e002000041
:020000040000fa
:0401dc00e00200003d
:020000040000fa
:0401e000e002000039
:020000040000fa
:0401e400e002000035
:020000040000fa
:0401e800e002000031
:020000040000fa
:0401ec00e00200002d
:020000040000fa
:0401f000e002000029
:020000040000fa
:0401f400e002000025
:020000040000fa
:0401f800e002000021
:020000040000fa
:0401fc00e00200001d
:020000040000fa
:04020000e002000018
:020000040000fa
:04020400e002000014
:020000040000fa
:04020800e002000010
:020000040000fa
:04020c00e00200000c
:020000040000fa
:04021000e002000008
:020000040000fa
:04021400e002000004
:020000040000fa
:04021800e002000000
:020000040000fa
:04021c00e0020000fc
:020000040000fa
:04022000e0020000f8
:020000040000fa
:04022400e0020000f4
:020000040000fa
:04022800e0020000f0
:020000040000fa
:04022c00e0020000ec
:020000040000fa
:04023000e0020000e8
:020000040000fa
:04023400e0020000e4
:020000040000fa
:04023800e0020000e0
:020000040000fa
:04023c00e0020000dc
:020000040000fa
:04024000e0020000d8
:020000040000fa
:04024400e0020000d4
:020000040000fa
:04024800e0020000d0
:020000040000fa
:04024c00e0020000cc
:020000040000fa
:04025000e0020000c8
:020000040000fa
:04025400e0020000c4
:020000040000fa
:04025800e0020000c0
:020000040000fa
:04025c00e0020000bc
:020000040000fa
:04026000e0020000b8
:020000040000fa
:04026400e0020000b4
:020000040000fa
:100400000f0121000eff2d000e01880000000000ea
:10041000000020000000e000020032000001200087
:10042000200288000c000700805e200001002000f0
:100430000f000700000020000000e0000200320072
:100440000000020000000000e402020000000000c2
:100450000040da000000fe00200020000000e00064
:100460000200320010002000900188000000060009
:10047000a1028800800078000000eb001a0037001d
:10048000e280400054a0b4009101ba00e280400034
:1004900054a0b4009102ba00e280400054a0b4001d
:1004a0000002eb00472bde00f507b200a601880032
:1004b000602ce10008003a000049eb000201e8006e
:1004c000020039003420ec0002f0a0008301e900b2
:1004d000f9ff3e00040037006128e100010032000e
:1004e0000082eb000b00070011c3ba001101ba0033
:1004f0000604e00003003a000200e000e0ff3a00da
:1005000000000600f607b200a6028800820078000c
:10051000f5ff370004d0a300e20f49001c003900aa
:10052000810278003549ba000201e8000200390072
:100530003420ec0002f0a0008301e9000f0032003b
:100540002549ba000201e800020039003420ec001d
:1005500002f0a0008301e900080032000400e0007e
:100560000600320015c9ba000201e8000200390095
:100570003420ec0002f0a0008301e9008180e80053
:1005800054a0b4000300e000e2ff3a0000000600bf
:100590009102ba00055978008301e900f7ff3200a3
:1005a000c82ade00055978008301e900f3ff320014
:1005b0000400e000f1ff320011d9ba00eeff37006d
:0805c0000040da000000fe001b
:020000040000fa
:1005c8000000fa004a01070000cea8000ecea800dd
:1005d8000acea9000ccea90008cea9004070800060
:1005e80000eea8000eeea8000aeea9000ceea90085
:1005f80008eea9004070800060cea8006ecea8006a
:100608006acea9006ccea90068cea900407380000c
:10061800001980004f00de00004078000080fb00d9
:1006280000808800011980000040200000806000e0
:100638000000e0000100320021e3a9002143a900e5
:100648001019800000d0a10000e0a10000f0a10076
:10065800101988002063a8002043a8000119800011
:1006680000402000008060000000e000020032002e
:1006780070032000108088000119800000402000cd
:10068800008060000000e00002003a0070022000d4
:10069800108088001080800000407800674060006b
:1006a80067406000674060000080fb0067006000f2
:1006b8004500dd0002198000f1f12f008100610082
:1006c8000100700000198800011980000040200016
:1006d800008060000000e00002003200700320008b
:1006e8002080880001198000004020000080600000
:1006f8000000e00002003a0070022000208088001c
:10070800208080004300de000040780061406000e7
:1007180061406000614060000080fb006100600093
:100728004400dd0002198000f1fe2f008100610005
:1007380001007000001988000119800000402000a5
:10074800008060000000e00002003200700320001a
:10075800308088000119800000402000008060007f
:100768000000e00002003a0070022000308088009b
:10077800308080004400de00004078007f40600048
:100788000080fb007f0060004800dd002219800027
:10079800f10f2e008100610001007000201988000f
:1007a8000119800000402000008060000000e00087
:1007b80002003200c001200040808800011980003a
:1007c80000402000008060000000e00002003a00c5
:1007d8002001200040808800408080000040780090
:1007e80024e3b70001198000004020000080600069
:1007f8000000e00002003200c001200050808800a4
:100808000119800000402000008060000000e00026
:1008180002003a00200120005080880050808000ab
:100828004800de0000407800614060000080fb0066
:100838004f00dd0022198000f1ff270081006100d0
:100848000100700020198800001980000080a100b4
:100858000090a1000019880021a3a9002223a90063
:1008680000198000680060000000e00015003200f8
:10087800101980004800de00634060000080fb0023
:100888000000e800010120000001780011000900c3
:100898008200d800004078000040e9007f406000f6
:1008a8000080fb007f0060004200dd00121980001c
:1008b80031f82f00810061000100700010198800d4
:1008c800060037001119800030f82f008080600082
:1008d800c003200001007000101988003303a9002c
:1008e8002183a900901980000000a1000010a10038
:1008f8000020a10090198800008080000000e0001e
:1009080016003200001980004200de0061406000dd
:100918000080fb00608088002043a90021e3a80034
:10092800004b200001002000990007006080800033
:1009380000407800614060000080fb0061006000ba
:100948004200dd0002198000b1ff2f008100610024
:10095800010070000019880000198000101980003b
:100968000080a0000090a000101988002203a900b0
:100978002343a9003023ef002e23ef004119800004
:1009880000fe2f00008060004019880028e3a900bd
:1009980041198000f00f2e00008060004019880087
:1009a80029e3a9002603a800301980000010a1003f
:1009b8000020a100301988002703a9003019800001
:1009c8000090a10000a0a100301988003019800013
:1009d800101980000080a0000090a0001019880065
:1009e8002203a9002343a80070082000801988006a
:1009f8002e23ef004119800000fe2f0000806000c8
:100a08004019880028e3a90041198000f00f2e0042
:100a1800008060004019880029e3a9002603a80087
:100a2800301980000010a1000020a10030198800b2
:100a38002703a900301980000090a10000a0a100a0
:100a4800301988003019800021a8a80021a8a90021
:100a5800304280000040a0000050a1000060a000cb
:100a680030428800001980004200de0061406000ca
:100a78000080fb00708088002043a90021e3a800c3
:100a8800004b20000100200041000700708080001a
:100a980000407800614060000080fb006100600059
:100aa8004200dd0002198000b1ff2f0081006100c3
:100ab80001007000001988000019800021e3a900d6
:100ac8002023a8002023a90000000000feff370013
:100ad8000000fa0001a8a9000080fa000040060002
:100ae8000000fa0002a8a9000080fa0000400600f1
:100af8000000fa00213a800000fe2f00008060000c
:100b0800203a8800a0032000303a8800203a80006c
:100b18000060a1000070a100203a88003200200087
:100b280080072000a1092000337420008049780044
:100b38008149780082497800120020006004200072
:100b480071052000237420008049780081497800cd
:100b58008249780000000000113a80000000270058
:100b68008080600000002300808f5000faff3a0068
:100b780000000000113a80000002200000806000a0
:100b88000000e000fbff32000080fa0000000600d1
:020000040000fa
:100b9800f03fb1000180b10006003500ee03090006
:100ba80000000000403fb1000180b100fbff3d00a4
:100bb8001000b000203fb00002003500008009009e
:080bc80000000000000006001f
:020000040000fa
:100bd000001000001000000080000000f005800000
:020000040000fa
:040be0000000000011
:020000040000fa
:0200000401f009
:04000800cfff000026
:020000040000fa
:0200000401f009
:04000c0078ffff007a
:020000040000fa
:0200000401f009
:0400100059ffff0095
:020000040000fa
:0200000401f009
:0400140060ffff008a
:020000040000fa
:0200000401f009
:04001800ffffff00e7
:020000040000fa
:0200000401f009
:04001c00dfffff0003
:020000040000fa
:0200000401f009
:04002000cfffff000f
:00000001FF
