:020000040000fa
:080000000002040000000000f2
:020000040000fa
:04000800e002000012
:020000040000fa
:04000c00e00200000e
:020000040000fa
:04001000e00200000a
:020000040000fa
:04001400e002000006
:020000040000fa
:04001800e002000002
:020000040000fa
:04001c00e0020000fe
:020000040000fa
:04002000e0020000fa
:020000040000fa
:04002400e0020000f6
:020000040000fa
:04002800e0020000f2
:020000040000fa
:04002c00e0020000ee
:020000040000fa
:04003000e0020000ea
:020000040000fa
:04003400e0020000e6
:020000040000fa
:04003800e0020000e2
:020000040000fa
:04003c00e0020000de
:020000040000fa
:04004000e0020000da
:020000040000fa
:04004400e0020000d6
:020000040000fa
:04004800e0020000d2
:020000040000fa
:04004c00e0020000ce
:020000040000fa
:04005000e0020000ca
:020000040000fa
:04005400e0020000c6
:020000040000fa
:04005800e0020000c2
:020000040000fa
:04005c00e0020000be
:020000040000fa
:04006000e0020000ba
:020000040000fa
:04006400e0020000b6
:020000040000fa
:04006800e0020000b2
:020000040000fa
:04006c00e0020000ae
:020000040000fa
:04007000e0020000aa
:020000040000fa
:04007400e0020000a6
:020000040000fa
:04007800e0020000a2
:020000040000fa
:04007c00e00200009e
:020000040000fa
:04008000e00200009a
:020000040000fa
:04008400e002000096
:020000040000fa
:04008800e002000092
:020000040000fa
:04008c00e00200008e
:020000040000fa
:04009000e00200008a
:020000040000fa
:04009400e002000086
:020000040000fa
:04009800e002000082
:020000040000fa
:04009c00e00200007e
:020000040000fa
:0400a000e00200007a
:020000040000fa
:0400a400e002000076
:020000040000fa
:0400a800e002000072
:020000040000fa
:0400ac00e00200006e
:020000040000fa
:0400b000e00200006a
:020000040000fa
:0400b400e002000066
:020000040000fa
:0400b800e002000062
:020000040000fa
:0400bc00e00200005e
:020000040000fa
:0400c000e00200005a
:020000040000fa
:0400c400e002000056
:020000040000fa
:0400c800e002000052
:020000040000fa
:0400cc00e00200004e
:020000040000fa
:0400d000e00200004a
:020000040000fa
:0400d400e002000046
:020000040000fa
:0400d800e002000042
:020000040000fa
:0400dc00e00200003e
:020000040000fa
:0400e000e00200003a
:020000040000fa
:0400e400e002000036
:020000040000fa
:0400e800e002000032
:020000040000fa
:0400ec00e00200002e
:020000040000fa
:0400f000e00200002a
:020000040000fa
:0400f400e002000026
:020000040000fa
:0400f800e002000022
:020000040000fa
:0400fc00e00200001e
:020000040000fa
:04010000e002000019
:020000040000fa
:04010400e002000015
:020000040000fa
:04010800e002000011
:020000040000fa
:04010c00e00200000d
:020000040000fa
:04011000e004000007
:020000040000fa
:04011400e002000005
:020000040000fa
:04011800e002000001
:020000040000fa
:04011c00e0020000fd
:020000040000fa
:04012000e0020000f9
:020000040000fa
:04012400e0020000f5
:020000040000fa
:04012800e0020000f1
:020000040000fa
:04012c00e0020000ed
:020000040000fa
:04013000e0020000e9
:020000040000fa
:04013400e0020000e5
:020000040000fa
:04013800e0020000e1
:020000040000fa
:04013c00e0020000dd
:020000040000fa
:04014000e0020000d9
:020000040000fa
:04014400e0020000d5
:020000040000fa
:04014800e0020000d1
:020000040000fa
:04014c00e0020000cd
:020000040000fa
:04015000e0020000c9
:020000040000fa
:04015400e8040000bb
:020000040000fa
:04015800e0020000c1
:020000040000fa
:04015c00e0020000bd
:020000040000fa
:04016000e0020000b9
:020000040000fa
:04016400e0020000b5
:020000040000fa
:04016800e0020000b1
:020000040000fa
:04016c00e0020000ad
:020000040000fa
:04017000e0020000a9
:020000040000fa
:04017400e0020000a5
:020000040000fa
:04017800e0020000a1
:020000040000fa
:04017c00e00200009d
:020000040000fa
:04018000e002000099
:020000040000fa
:04018400e002000095
:020000040000fa
:04018800e002000091
:020000040000fa
:04018c00e00200008d
:020000040000fa
:04019000e002000089
:020000040000fa
:04019400e002000085
:020000040000fa
:04019800e002000081
:020000040000fa
:04019c00e00200007d
:020000040000fa
:0401a000e002000079
:020000040000fa
:0401a400e002000075
:020000040000fa
:0401a800e002000071
:020000040000fa
:0401ac00e00200006d
:020000040000fa
:0401b000e002000069
:020000040000fa
:0401b400e002000065
:020000040000fa
:0401b800e002000061
:020000040000fa
:0401bc00e00200005d
:020000040000fa
:0401c000e002000059
:020000040000fa
:0401c400e002000055
:020000040000fa
:0401c800e002000051
:020000040000fa
:0401cc00e00200004d
:020000040000fa
:0401d000e002000049
:020000040000fa
:0401d400e002000045
:020000040000fa
:0401d800e002000041
:020000040000fa
:0401dc00e00200003d
:020000040000fa
:0401e000e002000039
:020000040000fa
:0401e400e002000035
:020000040000fa
:0401e800e002000031
:020000040000fa
:0401ec00e00200002d
:020000040000fa
:0401f000e002000029
:020000040000fa
:0401f400e002000025
:020000040000fa
:0401f800e002000021
:020000040000fa
:0401fc00e00200001d
:020000040000fa
:04020000e002000018
:020000040000fa
:04020400e002000014
:020000040000fa
:04020800e002000010
:020000040000fa
:04020c00e00200000c
:020000040000fa
:04021000e002000008
:020000040000fa
:04021400e002000004
:020000040000fa
:04021800e002000000
:020000040000fa
:04021c00e0020000fc
:020000040000fa
:04022000e0020000f8
:020000040000fa
:04022400e0020000f4
:020000040000fa
:04022800e0020000f0
:020000040000fa
:04022c00e0020000ec
:020000040000fa
:04023000e0020000e8
:020000040000fa
:04023400e0020000e4
:020000040000fa
:04023800e0020000e0
:020000040000fa
:04023c00e0020000dc
:020000040000fa
:04024000e0020000d8
:020000040000fa
:04024400e0020000d4
:020000040000fa
:04024800e0020000d0
:020000040000fa
:04024c00e0020000cc
:020000040000fa
:04025000e0020000c8
:020000040000fa
:04025400e0020000c4
:020000040000fa
:04025800e0020000c0
:020000040000fa
:04025c00e0020000bc
:020000040000fa
:04026000e0020000b8
:020000040000fa
:04026400e0020000b4
:020000040000fa
:100400004f0021000eff2d000e01880000000000ab
:10041000000020000000e000020032000001200087
:10042000200288000c00070000542000010020007a
:100430000f000700000020000000e0000200320072
:100440000000020000000000640402000000000040
:100450000040da000000fe00200020000000e00064
:100460000200320010002000900188000000060009
:10047000a1028800800078000000eb001a0037001d
:10048000e280400054a0b4009101ba00e280400034
:1004900054a0b4009102ba00e280400054a0b4001d
:1004a0000002eb00472bde00f507b200a601880032
:1004b000602ce10008003a000049eb000201e8006e
:1004c000020039003420ec0002f0a0008301e900b2
:1004d000f9ff3e00040037006128e100010032000e
:1004e0000082eb000b00070011c3ba001101ba0033
:1004f0000604e00003003a000200e000e0ff3a00da
:1005000000000600f607b200a6028800820078000c
:10051000f5ff370004d0a300e20f49001c003900aa
:10052000810278003549ba000201e8000200390072
:100530003420ec0002f0a0008301e9000f0032003b
:100540002549ba000201e800020039003420ec001d
:1005500002f0a0008301e900080032000400e0007e
:100560000600320015c9ba000201e8000200390095
:100570003420ec0002f0a0008301e9008180e80053
:1005800054a0b4000300e000e2ff3a0000000600bf
:100590009102ba00055978008301e900f7ff3200a3
:1005a000c82ade00055978008301e900f3ff320014
:1005b0000400e000f1ff320011d9ba00eeff37006d
:0805c0000040da000000fe001b
:020000040000fa
:1005c8000400fa00e00e8000000f7800f00e8000b2
:1005d800100798001e00be000080fa000000060008
:1005e8000400fa00300e8000000f7800500e8000e2
:1005f800100798001e00be000080fa0000000600e8
:100608000400fa00900e8000000f7800a00e800011
:10061800100798001e00be000080fa0000000600c7
:100628000400fa00b00e8000000f7800d00e8000a1
:10063800100798001e00be000080fa0000000600a7
:100648000000fa00600e80000080fa00000006003a
:100658000200fa00000f78001e00780010009000d9
:10066800100f88001e00780010007800000f880026
:100678000080fa00000006000200fa00000f78006f
:100688001e00780010009000500e88001e007800b0
:1006980010007800300e88000080fa000000060084
:1006a8000200fa00000f78001e0078001000900089
:1006b800f00e88001e00780010007800e00e880018
:1006c8000080fa00000006000200fa00000f78001f
:1006d8001e00780010009000f00e88001e007800c0
:1006e80010007800e00e88000080fa000000060084
:1006f8000200fa00000f78001e0078001000900039
:10070800800e88001e00780010007800700e8800a7
:100718000080fa00000006000200fa00000f7800ce
:100728001e00780010009000d00e88001e0078008f
:1007380010007800b00e88000080fa000000060063
:100748000400fa00e02e8000000f7800f02e8000f0
:10075800100798001e00be000080fa000000060086
:100768000400fa00302e8000000f7800502e800020
:10077800100798001e00be000080fa000000060066
:100788000400fa00902e8000000f7800a02e800050
:10079800100798001e00be000080fa000000060046
:1007a8000400fa00b02e8000000f7800d02e8000e0
:1007b800100798001e00be000080fa000000060026
:1007c8000000fa00602e80000080fa000000060099
:1007d8000200fa00000f78001e0078001000900058
:1007e800102f88001e00780010007800002f880065
:1007f8000080fa00000006000200fa00000f7800ee
:100808001e00780010009000502e88001e0078000e
:1008180010007800302e88000080fa0000000600e2
:100828000200fa00000f78001e0078001000900007
:10083800f02e88001e00780010007800e02e880056
:100848000080fa00000006000200fa00000f78009d
:100858001e00780010009000f02e88001e0078001e
:1008680010007800e02e88000080fa0000000600e2
:100878000200fa00000f78001e00780010009000b7
:10088800802e88001e00780010007800702e8800e6
:100898000080fa00000006000200fa00000f78004d
:1008a8001e00780010009000d02e88001e007800ee
:1008b80010007800b02e88000080fa0000000600c2
:1008c8000000fa0044000700000e80000000a100ac
:1008d8000010a000000e8800c041a800000e800093
:1008e80000a0a10000b0a10000c0a100000e880077
:1008f800000e80000040a1000050a1000060a1008f
:10090800000e8800c061a900c3e1a900c1a1a90027
:10091800c1e1a800000e8000100e800000b0a10008
:1009280000c0a10000d0a100100e8800c3c1a9001a
:10093800000e80000080a0000090a000000e88003b
:10094800c301a900c281a900c2a1a900c2c1a9000e
:10095800c2e1a900100e80000090a10000a0a10033
:10096800100e8800100e8000e04280000080a10078
:100978000090a10000a0a000e0428800c501a800e6
:10098800c401a900c441a900c481a900c541a900a6
:10099800c581a900c4c1a900200e800010ff07006e
:1009a8000080880011808800000021009cff07005b
:1009b80000000000feff37000000fa000748a90009
:1009c8000080fa00004006000000fa000968a9004b
:1009d8000080fa00004006000000fa00213a80007a
:1009e80000fe2f0000806000203a8800a00320004d
:1009f800303a8800203a80000060a1000070a10011
:100a0800203a88003200200080072000a109200039
:100a18003374200080497800814978008249780041
:100a280012002000600420007105200023742000bb
:100a380080497800814978008249780000000000e8
:100a4800113a800000002700808060000000230029
:100a5800808f5000faff3a0000000000113a800031
:100a680000022000008060000000e000fbff320070
:080a78000080fa0000000600f6
:020000040000fa
:100a80000010000004000000800000004805800005
:020000040000fa
:040a90000000000062
:020000040000fa
:0200000401f009
:04000800cfff000026
:020000040000fa
:0200000401f009
:04000c0078ffff007a
:020000040000fa
:0200000401f009
:0400100059ffff0095
:020000040000fa
:0200000401f009
:0400140060ffff008a
:020000040000fa
:0200000401f009
:04001800ffffff00e7
:020000040000fa
:0200000401f009
:04001c00dfffff0003
:020000040000fa
:0200000401f009
:04002000cfffff000f
:00000001FF
