:020000040000fa
:080000000002040000000000f2
:020000040000fa
:10000800d2020000d2020000d2020000d202000098
:10001800d2020000d2020000d2020000d202000088
:10002800d2020000d2020000d2020000d202000078
:10003800d2020000d2020000d2020000d202000068
:10004800d2020000d2020000d2020000d202000058
:10005800d2020000d2020000d2020000d202000048
:10006800d2020000d2020000d2020000d202000038
:10007800d2020000d2020000d2020000d202000028
:10008800d2020000d2020000d2020000d202000018
:10009800d2020000d2020000d2020000d202000008
:1000a800d2020000d2020000d2020000d2020000f8
:1000b800d2020000d2020000d2020000d2020000e8
:1000c800d2020000d2020000d2020000d2020000d8
:1000d800d2020000d2020000d2020000d2020000c8
:1000e800d2020000d2020000d2020000d2020000b8
:1000f800d2020000d2020000d2020000d2020000a8
:10010800d2020000d2020000d2020000d202000097
:10011800d2020000d2020000d2020000d202000087
:10012800d2020000d2020000d2020000c80e000075
:10013800d2020000d2020000d2020000d202000067
:10014800d2020000d2020000d2020000d202000057
:10015800d2020000d2020000d2020000d202000047
:10016800d2020000d2020000d2020000d202000037
:10017800d2020000d2020000d2020000d202000027
:10018800d2020000d2020000d2020000d202000017
:10019800d2020000d2020000d2020000d202000007
:1001a800d2020000d2020000d2020000d2020000f7
:1001b800d2020000d2020000d2020000d2020000e7
:1001c800d2020000d2020000d2020000d2020000d7
:1001d800d2020000d2020000d2020000d2020000c7
:1001e800d2020000d2020000d2020000d2020000b7
:1001f800d2020000d2020000d2020000d2020000a7
:10020800d2020000d2020000d2020000d202000096
:10021800d2020000d2020000d2020000d202000086
:10022800d2020000d2020000d2020000d202000076
:10023800d2020000d2020000d2020000d202000066
:10024800d2020000d2020000d2020000d202000056
:10025800d2020000d2020000d2020000d202000046
:020000040000fa
:100400002f0121000eff2d000e01880000000000ca
:10041000000020000000e000020032000001200087
:10042000200288000c00070020f2200001002000bc
:100430000f000700000020000000e0000200320072
:100440000000020000000000380e02000000000062
:100450000040da000000fe00200020000000e00064
:100460000200320010002000900188000000060009
:10047000a1028800800078000000eb001a0037001d
:10048000e280400054a0b4009101ba00e280400034
:1004900054a0b4009102ba00e280400054a0b4001d
:1004a0000002eb00472bde00f507b200a601880032
:1004b000602ce10008003a000049eb000201e8006e
:1004c000020039003420ec0002f0a0008301e900b2
:1004d000f9ff3e00040037006128e100010032000e
:1004e0000082eb00040007001101ba000200e000e6
:1004f000e3ff3a000000060004d0a300e20f490029
:100500001c003900810278003549ba000201e80078
:10051000020039003420ec0002f0a0008301e90061
:100520000f0032002549ba000201e800020039003c
:100530003420ec0002f0a0008301e9000800320042
:100540000400e0000600320015c9ba000201e8000c
:10055000020039003420ec0002f0a0008301e90021
:100560008180e80054a0b4000300e000e2ff3a00fc
:10057000000006009102ba00055978008301e900e5
:10058000f7ff3200c82ade00055978008301e90030
:10059000f3ff32000400e000f1ff320011d9ba008d
:0c05a000eeff37000040da000000fe0013
:020000040000fa
:1005ac001000fa0030079800410798005207980095
:1005bc0063079800644f98006e4a90000482fb0019
:1005cc000403e900140020000500200086037800d5
:1005dc008703e900030033000402420085824a00cd
:1005ec00fbff370014079800250798000042eb002a
:1005fc00044f7800230037005e0290006102620015
:10060c0004427800e04f5200170032005e03900065
:10061c00ee0390003e029000ce02900004026b00ac
:10062c0085826b0054079800650798005e02900065
:10063c00ee0290008502d1000482d300540798008a
:10064c00650798005e039000ee0390001e02900078
:10065c00ae02900004027300858273005407980068
:10066c0065079800060037005e029000ee029000cd
:10067c008502d1000482d3005407980065079800c6
:10068c001e4fe8006e4a90009e42780084cf5200c4
:10069c00d9ff39005e029000ee0290000400be000b
:1006ac000080fa00000006000c00fa0030079800e9
:1006bc0041079800224f98006022b800048fbe00ba
:1006cc000042eb00444798001e0037003e029000a9
:1006dc006102620004427800e04f520010003200c8
:1006ec002e4a90000482fb008402e9004e429000e6
:1006fc000482fb000483520014002000050020003b
:10070c00860378008703e9000300330004024200eb
:10071c0085824a00fbff37001e1f72001e97720075
:10072c003e029000ce0290008502d1000482d300dc
:10073c0034079800450798004e4290000442e800a8
:10074c0044479800ce4290002e4a900084cf52002d
:10075c00deff39001e02be000400be000080fa005d
:10076c00000006000e00fa003007980041079800c0
:10077c0052079800434f9800544f98005e02900027
:10078c00643288002868a900444180004322de00be
:10079c00614262000482fb00610262004322dd00c0
:1007ac004640800075ff2f00850263000502720031
:1007bc00444088004e029000e00f520002003a00c4
:1007cc000042eb0083003700143280007f0262008d
:1007dc00e70f5200020032000042eb007d003700b0
:1007ec004e0290000402e8006102620004427800ac
:1007fc00e04f52000300320014c0b30024479800ad
:10080c00020037000042eb00244798000002eb0086
:10081c00040f78001400370084642000be0290009e
:10082c0095427800054a78003e0290000402e800e8
:10083c00340798000532800004082000048262000e
:10084c00e00f5200070032004086a80000000000b4
:10085c00053280000404200004826200e00f520084
:10086c00fbff32001e0fe8004e0290009e02780043
:10087c00848f5200e8ff39004086a8000000000079
:10088c00053280000404200004826200e00f520054
:10089c00fbff32002e429000e14f52001c003a0048
:1008ac00000000000000000000000000000000003c
:1008bc004086a9000002eb00040f780010003700fe
:1008cc00653280000408200004826200240798002e
:1008dc006432800004024200643288002e029000d0
:1008ec00e00f520005003200243280008402e80040
:1008fc006432800004826a00643288001e0fe800b3
:10090c001e027800e70f5200edff36001100370091
:10091c00846420008042eb00054a78004086a800e1
:10092c0000000000053280000404200004826200f4
:10093c00e00f5200fbff320000000000000000003e
:10094c000000000000000000000000004086a9002c
:10095c00000000004e4a9000e04f52001900320097
:10096c00643280006123b800f40f200005002000e1
:10097c0006007800070378008403780005027800ed
:10098c00070060000402630005002000c022dd00a7
:10099c00040020000403be006102b80004037300cd
:1009ac008583730082c0b3000600be003eff0700c3
:1009bc000002be00844278005e4a900004c26a00c5
:1009cc000400370064328000844278005e4a900054
:1009dc0004c26a00044078000080fa00000006009f
:1009ec001000fa0030079800410798005207980051
:1009fc00434f9800740798005e02900064328800a0
:100a0c002868a900444180004322de006142620054
:100a1c000482fb00610262004322dd00464080003c
:100a2c0075ff2f00850263000502720044408800a8
:100a3c004e029000e00f520002003a000002eb0060
:100a4c0089003700143280007f026200ef0f5200e1
:100a5c00020032000002eb00830037004e029000cf
:100a6c006102620004427800e04f52000300320041
:100a7c0014c0b30024479800020037000042eb007a
:100a8c00244798000002eb00040f78001400370094
:100a9c0084642000be02900095427800054a7800dc
:100aac003e0290000402e8003407980005328000f2
:100abc000408200004826200e00f5200070032009c
:100acc004086a800000000000532800004042000cd
:100adc0004826200e00f5200fbff32001e0fe800a0
:100aec004e0290009e027800848f5200e8ff39007d
:100afc004086a8000000000005328000040420009d
:100b0c0004826200e00f5200fbff32002e42900084
:100b1c00e14f52002c003a00846420008042eb002c
:100b2c00054a78004086a8000000000005328000cd
:100b3c000404200004826200e00f5200fbff32002c
:100b4c000000000000000000000000000000000099
:100b5c000000000000000000000000000000000089
:100b6c00000000004086a900000000000002eb001d
:100b7c00040f780010003700653280000400280054
:100b8c000482620024079800643280000402420050
:100b9c00643288002e029000e00f520005003200f3
:100bac00243280008402e8006432800004826a00ef
:100bbc00643288001e0fe8001e027800e70f520016
:100bcc00edff360018003700846420008042eb00f3
:100bdc00054a7800846420008042eb00054a7800c6
:100bec004086a800000000000532800004042000ac
:100bfc0004826200e00f5200fbff32000000000094
:100c0c0000000000000000000000000000000000d8
:100c1c0000000000000000000000000000000000c8
:100c2c004086a900000000004e4a9000e04f5200a0
:100c3c000a003200643280000500200002c1b300bb
:100c4c000400be0098fe07000002be00840278007b
:100c5c007e02900004826a00030037006532800037
:100c6c007e02900004826a00040078000080fa0082
:100c7c00000006001e00fa00000f9800110f9800eb
:100c8c00220f9800330f9800045f9800560f9800bd
:100c9c00670f98002e0a9000643288002e0a90008c
:100cac00be0a9000402ade000402780074328800ec
:100cbc002868a900444180004322de0061426200a2
:100ccc000482fb00610262004322dd00464080008a
:100cdc0075ff2f00850263000502720044408800f6
:100cec001e0a9000e00f520002003a006022b80089
:100cfc00df003700143280007f026200ff0f5200c9
:100d0c00020032006022b800d90037001e0a9000a1
:100d1c006102620004427800e04f5200030032008e
:100d2c0014c0b30064479800020037000042eb0087
:100d3c00644798000002eb00240798001600370067
:100d4c00846420008e0a900095427800054a780051
:100d5c000e0a90000402e800040f9800053280008f
:100d6c000408200004826200e00f520007003200e9
:100d7c004086a8000000000005328000040420001a
:100d8c0004826200e00f5200fbff32002e02900042
:100d9c000402e80024079800ae0290001e0a90009e
:100dac00848f5200e6ff39004086a8000000000046
:100dbc00053280000404200004826200e00f52001f
:100dcc00fbff32006e429000e14f520066003a0089
:100ddc00846420008042eb00054a78008464200083
:100dec008042eb00054a7800846420008042eb00ce
:100dfc00054a78004086a8000000000005328000fb
:100e0c000404200004826200e00f5200fbff320059
:100e1c0000000000000000000000000000000000c6
:100e2c0000000000000000000000000000000000b6
:100e3c0000000000000000000000000000000000a6
:100e4c000000000000000000000000000000000096
:100e5c0000000000000000004086a9003432800031
:100e6c000500200044079800550798004e0290009a
:100e7c00de029000c023dd0006002000243280003a
:100e8c000402e800050020000602420087824a00a6
:100e9c004407980055079800743280000500200024
:100eac00048fbe001e02be00c023dd000600200021
:100ebc006432800005002000041f430005974b009e
:100ecc000002eb00240798002300370004002000e8
:100edc00050028001e03be000600780007037800fa
:100eec0084037800050278000700600004026300a8
:100efc0005002000c022dd00040020000403be0019
:100f0c006102b800040373008583730066079800c0
:100f1c00770798001e02be000402420085824a0038
:100f2c00048fbe006e029000fe029000e00f520093
:100f3c00e08f5a00050032001e03be004e029000e6
:100f4c00de029000041f6b0005976b002e029000d0
:100f5c000402e800240798002e029000e70f5200cc
:100f6c00daff360031003700846420008042eb0049
:100f7c00054a7800846420008042eb00054a780022
:100f8c00846420008042eb00054a780084642000d1
:100f9c008042eb00054a78004086a8000000000063
:100fac00053280000404200004826200e00f52002d
:100fbc00fbff3200000000000000000000000000f9
:100fcc000000000000000000000000000000000015
:100fdc000000000000000000000000000000000005
:100fec0000000000000000000000000000000000f5
:100ffc000000000000000000000000004086a90076
:10100c00000000007432800005002000048fbe0038
:10101c001e02be00c023dd000600200064328000ea
:10102c0005002000041f430005974b000e5a90004a
:10103c00e04f52000900320002c2b3001e00be0095
:10104c0099fd07000003be005e0a9000ee0a9000b6
:10105c0004026b0085826b00050037001e03be0086
:10106c005e0a9000ee0a900004026b0085826b0011
:10107c000400be000080fa00000006002800fa0000
:10108c00500f9800610f9800720f9800031798008a
:10109c002467980026179800371798007e0a90004e
:1010ac00643288007e0a90008e129000402ade0086
:1010bc0004027800743288002868a900444180003a
:1010cc004322de00614262000482fb006102620086
:1010dc004322dd004640800075ff2f00850263002f
:1010ec0005027200444088001432800004427800eb
:1010fc007f4262000483fb001400200005002000e6
:10110c00860378008703e9000300330004024200e1
:10111c0085824a00fbff370054079800650798004a
:10112c0014328000044278007f4262000482fb008b
:10113c000402e800340798003e0290000442780054
:10114c0067426200144f98001e4a9000e04f520014
:10115c0002003a0084c0b300144f98005e02900065
:10116c00ee0290000402420085824a0061025200a5
:10117c00e0825a0074079800050f98006e0a9000e0
:10118c00e00f520002003a006022b800b2023700b1
:10119c003e029000e00f5200060032003e0290002a
:1011ac00e80f520003003e001400200034079800a2
:1011bc001e0037003e029000e80f52000600360079
:1011cc003e029000f00f520003003e00240020006d
:1011dc0034079800150037003e029000f00f5200c3
:1011ec00060036003e029000f80f520003003e004d
:1011fc0034002000340798000c0037003e029000a9
:10120c00f80f520007003600be02900004022000c6
:10121c00848f520003003e004400200034079800e5
:10122c00020037006022b8008b023700ee0a9000f3
:10123c003e02900004824200610262000442780087
:10124c00e04f52000300320014c0b300044f98006a
:10125c00020037000042eb00044f98000002eb0044
:10126c00240798001600370084642000de0a9000e2
:10127c0095427800054a78005e0a90000402e80066
:10128c00540f98000532800004082000048262008c
:10129c00e00f5200070032004086a800000000005a
:1012ac00053280000404200004826200e00f52002a
:1012bc00fbff32002e0290000402e8002407980085
:1012cc00ae0290006e0a9000848f5200e6ff390047
:1012dc004086a800000000000532800004042000b5
:1012ec0004826200e00f5200fbff32000e4a9000b5
:1012fc00e14f52006c013a003e029000e10f5200a7
:10130c0033003a0000000000000000000000000064
:10131c00000000004086a9000002eb0024079800a2
:10132c0023003700643280006123b8005e02900015
:10133c00ee02900006007800070378008403780022
:10134c00050278000700600004026300050020001d
:10135c00c022dd00040020000403be006102b800be
:10136c000403730085837300160f9800270f9800f1
:10137c006432800004024200643288001e0a90002d
:10138c00ae0a9000e00f5200e08f5a0005003200c8
:10139c00243280008402e8006432800004826a00f7
:1013ac00643288002e0290000402e80024079800a2
:1013bc001e4a90008482fb002e029000848f520003
:1013cc00d8ff3e006432800005002000048fbe0070
:1013dc003e029000e20f520043003a008464200069
:1013ec008042eb00054a78004086a800000000000f
:1013fc00053280000404200004826200e00f5200d9
:10140c00fbff3200000000000000000000000000a4
:10141c0000000000000000000000000000000000c0
:10142c0000000000000000004086a9000000000041
:10143c000002eb0024079800230037006432800080
:10144c006123b8005e029000ee0290000600780066
:10145c000703780084037800050278000700600019
:10146c000402630005002000c022dd0004002000ff
:10147c000403be006102b80004037300858373008b
:10148c00160f9800270f9800643280000402420067
:10149c00643288001e0a9000ae0a9000e00f5200e1
:1014ac00e08f5a0005003200243280008402e800ec
:1014bc006432800004826a00643288002e0290003c
:1014cc000402e800240798001e4a90008482fb0066
:1014dc002e029000848f5200d8ff3e0064328000b0
:1014ec0005002000048fbe003e029000e30f520066
:1014fc0071003a00846420008042eb00054a7800b9
:10150c00846420008042eb00054a78004086a800e5
:10151c0000000000053280000404200004826200f8
:10152c00e00f5200fbff3200000000000000000042
:10153c00000000000000000000000000000000009f
:10154c00000000000000000000000000000000008f
:10155c00000000000000000000000000000000007f
:10156c004086a9003432800005002000340f98001a
:10157c00450f98003e0a9000ce0a9000c023dd0073
:10158c0006002000243280000402e8000500200040
:10159c000602420087824a00340f9800450f9800db
:1015ac007432800005002000048fbe001e02be00b5
:1015bc00c023dd00060020006432800005002000fe
:1015cc00041f430005974b007e0290008e0a90008a
:1015dc001e03be0006007800070378008403780021
:1015ec00050278000700600004026300050020007b
:1015fc00c022dd00040020000403be006102b8001c
:10160c000403730085837300068fbe000002eb0099
:10161c0024079800230037005e029000ee02900031
:10162c001e03be00060078000703780084037800d0
:10163c00050278000700600004026300050020002a
:10164c00c022dd00040020000403be006102b800cb
:10165c000403730085837300160f9800270f9800fe
:10166c001e02be000402420085824a00048fbe00a6
:10167c001e0a9000ae0a9000e00f5200e08f5a0054
:10168c00050032001e03be003e0a9000ce0a9000f8
:10169c00041f6b0005976b002e0290000402e800fb
:1016ac00240798001e4a90008482fb002e029000b2
:1016bc00848f5200d8ff3e003e029000e40f52008f
:1016cc0031013a00846420008042eb00054a780026
:1016dc00846420008042eb00054a7800846420007a
:1016ec008042eb00054a78004086a800000000000c
:1016fc00053280000404200004826200e00f5200d6
:10170c00fbff3200000000000000000000000000a1
:10171c0000000000000000000000000000000000bd
:10172c0000000000000000000000000000000000ad
:10173c00000000000000000000000000000000009d
:10174c000000000000000000000000004086a9001e
:10175c003432800005002000340f9800450f9800ab
:10176c003e0a9000ce0a9000c023dd000600200047
:10177c00243280000402e80005002000060242002a
:10178c0087824a00340f9800450f9800743280000d
:10179c0005002000048fbe001e02be00c023dd0029
:1017ac00060020006432800005002000041f430066
:1017bc0005974b007e0290008e0a90001e03be001f
:1017cc00060078000703780084037800050278008f
:1017dc00070060000402630005002000c022dd0049
:1017ec00040020000403be006102b800040373006f
:1017fc0085837300068fbe000002eb00240798005f
:10180c00230037005e029000ee0290001e03be0023
:10181c00060078000703780084037800050278003e
:10182c00070060000402630005002000c022dd00f8
:10183c00040020000403be006102b800040373001e
:10184c0085837300160f9800270f98001e02be00a8
:10185c000402420085824a00048fbe001e0a9000da
:10186c00ae0a9000e00f5200e08f5a0005003200e3
:10187c001e03be003e0a9000ce0a9000041f6b00af
:10188c0005976b002e0290000402e80024079800d4
:10189c001e4a90008482fb002e029000848f52001e
:1018ac00d8ff3e00b80037001432800004427800a4
:1018bc007f4262000482fb000402e80067026200bf
:1018cc00e00f520033003a000002eb0024079800ae
:1018dc0006003700846420008042eb00054a780043
:1018ec002e0290000402e80024079800ae0290003b
:1018fc003e029000848f5200f6ff39004086a8000b
:10190c000000000005328000040420000482620004
:10191c00e00f5200fbff320000000000000000004e
:10192c0000000000000000000000000000000000ab
:10193c00000000000000000000000000000000009b
:10194c00000000000000000000000000000000008b
:10195c00000000000000000000000000000000007b
:10196c004086a900000000007432800005002000b1
:10197c00048fbe001e02be00c023dd000600200046
:10198c006432800005002000041f430005974b00c3
:10199c007d0037000002eb0024079800060037009a
:1019ac00846420008042eb00054a78002e029000ef
:1019bc000402e800240798003e0290008402e9002b
:1019cc002e029000848f5200f5ff3e004086a80046
:1019dc000000000005328000040420000482620034
:1019ec00e00f5200fbff320000000000000000007e
:1019fc0000000000000000000000000000000000db
:101a0c0000000000000000000000000000000000ca
:101a1c0000000000000000000000000000000000ba
:101a2c0000000000000000000000000000000000aa
:101a3c004086a9003432800005002000340f980045
:101a4c00450f98003e0a9000ce0a9000c023dd009e
:101a5c0006002000243280000402e800050020006b
:101a6c000602420087824a00340f9800450f980006
:101a7c007432800005002000048fbe001e02be00e0
:101a8c00c023dd0006002000643280000500200029
:101a9c00041f430005974b007e0290008e0a9000b5
:101aac001e03be000600780007037800840378004c
:101abc0005027800070060000402630005002000a6
:101acc00c022dd00040020000403be006102b80047
:101adc000403730085837300068fbe000002eb00c5
:101aec0024079800230037005e029000ee0290005d
:101afc001e03be00060078000703780084037800fc
:101b0c000502780007006000040263000500200055
:101b1c00c022dd00040020000403be006102b800f6
:101b2c000403730085837300160f9800270f980029
:101b3c001e02be000402420085824a00048fbe00d1
:101b4c001e0a9000ae0a9000e00f5200e08f5a007f
:101b5c00050032001e03be003e0a9000ce0a900023
:101b6c00041f6b0005976b002e0290000402e80026
:101b7c00240798001e4a90008482fb002e029000dd
:101b8c00848f5200d8ff3e002e629000e04f52002e
:101b9c001d00320014328000044278007f42620043
:101bac000440e8007e0290008e0a90001e03be00e6
:101bbc00860078000703780084037800050278001b
:101bcc00878060000402630005002000c022dd0055
:101bdc00040020000403be00610ab8000403730073
:101bec0085837300004178000600be00aefa070042
:101bfc000003be002e129000be12900004026b0077
:101c0c0085826b00140037007e0290008e0a9000d3
:101c1c001e03be00060078000703780084037800da
:101c2c000502780007006000040263000500200034
:101c3c00c022dd00040020000403be006102b800d5
:101c4c0004037300858373002e129000be12900063
:101c5c0004026b0085826b000400be000080fa0059
:101c6c00000006000000fa004b00070041e6a80047
:101c7c0014328000f401b3001432880074db2100ac
:101c8c0024328800144c2000343288001532800035
:101c9c00f40f2e0084826200047020000502720092
:101cac00143288004066a8004086a80005328000e7
:101cbc000404200004826200e00f5200fbff32009b
:101ccc000000000000000000000000000000000008
:101cdc0000000000000000000000000000000000f8
:101cec0000000000000000000000000000000000e8
:101cfc0000000000000000000000000000000000d8
:101d0c0000000000000000000000000000000000c7
:101d1c004086a9000002eb00643288000002eb0050
:101d2c00743288007432800054808000658080009a
:101d3c000402780064328800548080006580800042
:101d4c00402ade000402780074328800743280006d
:101d5c000083eb008083eb0014c0b3009244260098
:101d6c00f36a24009100200000002100c1fb070051
:101d7c000002be007480880085808800000000008e
:101d8c00feff37000000fa000868a9000000000000
:101d9c000080fa00004006000000fa00253a80009e
:101dac0004fe2f0004826200243a8800a403200061
:101dbc00343a8800243a80000460a1000470a10029
:101dcc00243a88003600200084072000a509200052
:101ddc0037742000844b7800854b7800864b780054
:101dec0016002000640420007505200027742000d4
:101dfc00844b7800854b7800864b780000000000ff
:101e0c00153a80000400270084826200040023003d
:101e1c00848f5200faff3a0000000000153a80004f
:101e2c000402200004826200e00f5200fbff32002b
:081e3c000080fa00000006001e
:020000040000fa
:101e4400001000000e0000008200000001020300e8
:101e5400040506000708090000496400af460000b5
:101e64000e100000040000008000000000000000cc
:020000040000fa
:0200000401f009
:04000800cfffff0027
:020000040000fa
:0200000401f009
:04000c0078ffff007a
:020000040000fa
:0200000401f009
:0400100059ffff0095
:020000040000fa
:0200000401f009
:0400140060ffff008a
:020000040000fa
:0200000401f009
:04001800ffffff00e7
:020000040000fa
:0200000401f009
:04001c00dfffff0003
:020000040000fa
:0200000401f009
:04002000cfffff000f
:00000001FF
