:020000040000fa
:080000000002040000000000f2
:020000040000fa
:04000800e002000012
:020000040000fa
:04000c00e00200000e
:020000040000fa
:04001000e00200000a
:020000040000fa
:04001400e002000006
:020000040000fa
:04001800e002000002
:020000040000fa
:04001c00e0020000fe
:020000040000fa
:04002000e0020000fa
:020000040000fa
:04002400e0020000f6
:020000040000fa
:04002800e0020000f2
:020000040000fa
:04002c00e0020000ee
:020000040000fa
:04003000e0020000ea
:020000040000fa
:04003400e0020000e6
:020000040000fa
:04003800e0020000e2
:020000040000fa
:04003c00e0020000de
:020000040000fa
:04004000e0020000da
:020000040000fa
:04004400e0020000d6
:020000040000fa
:04004800e0020000d2
:020000040000fa
:04004c00e0020000ce
:020000040000fa
:04005000e0020000ca
:020000040000fa
:04005400e0020000c6
:020000040000fa
:04005800e0020000c2
:020000040000fa
:04005c00e0020000be
:020000040000fa
:04006000e0020000ba
:020000040000fa
:04006400e0020000b6
:020000040000fa
:04006800e0020000b2
:020000040000fa
:04006c00e0020000ae
:020000040000fa
:04007000e0020000aa
:020000040000fa
:04007400e0020000a6
:020000040000fa
:04007800e0020000a2
:020000040000fa
:04007c00e00200009e
:020000040000fa
:04008000e00200009a
:020000040000fa
:04008400e002000096
:020000040000fa
:04008800e002000092
:020000040000fa
:04008c00e00200008e
:020000040000fa
:04009000e00200008a
:020000040000fa
:04009400e002000086
:020000040000fa
:04009800e002000082
:020000040000fa
:04009c00e00200007e
:020000040000fa
:0400a000e00200007a
:020000040000fa
:0400a400e002000076
:020000040000fa
:0400a800e002000072
:020000040000fa
:0400ac00e00200006e
:020000040000fa
:0400b000e00200006a
:020000040000fa
:0400b400e002000066
:020000040000fa
:0400b800e002000062
:020000040000fa
:0400bc00e00200005e
:020000040000fa
:0400c000e00200005a
:020000040000fa
:0400c400e002000056
:020000040000fa
:0400c800e002000052
:020000040000fa
:0400cc00e00200004e
:020000040000fa
:0400d000e00200004a
:020000040000fa
:0400d400e002000046
:020000040000fa
:0400d800e002000042
:020000040000fa
:0400dc00e00200003e
:020000040000fa
:0400e000e00200003a
:020000040000fa
:0400e400e002000036
:020000040000fa
:0400e800e002000032
:020000040000fa
:0400ec00e00200002e
:020000040000fa
:0400f000e00200002a
:020000040000fa
:0400f400e002000026
:020000040000fa
:0400f800e002000022
:020000040000fa
:0400fc00e00200001e
:020000040000fa
:04010000e002000019
:020000040000fa
:04010400e002000015
:020000040000fa
:04010800e002000011
:020000040000fa
:04010c00e00200000d
:020000040000fa
:04011000e002000009
:020000040000fa
:04011400e002000005
:020000040000fa
:04011800e002000001
:020000040000fa
:04011c00e0020000fd
:020000040000fa
:04012000e0020000f9
:020000040000fa
:04012400e0020000f5
:020000040000fa
:04012800e0020000f1
:020000040000fa
:04012c00e0020000ed
:020000040000fa
:04013000e0020000e9
:020000040000fa
:04013400e0020000e5
:020000040000fa
:04013800e0020000e1
:020000040000fa
:04013c00e0020000dd
:020000040000fa
:04014000e0020000d9
:020000040000fa
:04014400e0020000d5
:020000040000fa
:04014800e0020000d1
:020000040000fa
:04014c00e0020000cd
:020000040000fa
:04015000e0020000c9
:020000040000fa
:04015400e0020000c5
:020000040000fa
:04015800e0020000c1
:020000040000fa
:04015c00e0020000bd
:020000040000fa
:04016000e0020000b9
:020000040000fa
:04016400e0020000b5
:020000040000fa
:04016800e0020000b1
:020000040000fa
:04016c00e0020000ad
:020000040000fa
:04017000e0020000a9
:020000040000fa
:04017400e0020000a5
:020000040000fa
:04017800e0020000a1
:020000040000fa
:04017c00e00200009d
:020000040000fa
:04018000e002000099
:020000040000fa
:04018400e002000095
:020000040000fa
:04018800e002000091
:020000040000fa
:04018c00e00200008d
:020000040000fa
:04019000e002000089
:020000040000fa
:04019400e002000085
:020000040000fa
:04019800e002000081
:020000040000fa
:04019c00e00200007d
:020000040000fa
:0401a000e002000079
:020000040000fa
:0401a400e002000075
:020000040000fa
:0401a800e002000071
:020000040000fa
:0401ac00e00200006d
:020000040000fa
:0401b000e002000069
:020000040000fa
:0401b400e002000065
:020000040000fa
:0401b800e002000061
:020000040000fa
:0401bc00e00200005d
:020000040000fa
:0401c000e002000059
:020000040000fa
:0401c400e002000055
:020000040000fa
:0401c800e002000051
:020000040000fa
:0401cc00e00200004d
:020000040000fa
:0401d000e002000049
:020000040000fa
:0401d400e002000045
:020000040000fa
:0401d800e002000041
:020000040000fa
:0401dc00e00200003d
:020000040000fa
:0401e000e002000039
:020000040000fa
:0401e400e002000035
:020000040000fa
:0401e800e002000031
:020000040000fa
:0401ec00e00200002d
:020000040000fa
:0401f000e002000029
:020000040000fa
:0401f400e002000025
:020000040000fa
:0401f800e002000021
:020000040000fa
:0401fc00e00200001d
:020000040000fa
:04020000e002000018
:020000040000fa
:04020400e002000014
:020000040000fa
:04020800e002000010
:020000040000fa
:04020c00e00200000c
:020000040000fa
:04021000e002000008
:020000040000fa
:04021400e002000004
:020000040000fa
:04021800e002000000
:020000040000fa
:04021c00e0020000fc
:020000040000fa
:04022000e0020000f8
:020000040000fa
:04022400e0020000f4
:020000040000fa
:04022800e0020000f0
:020000040000fa
:04022c00e0020000ec
:020000040000fa
:04023000e0020000e8
:020000040000fa
:04023400e0020000e4
:020000040000fa
:04023800e0020000e0
:020000040000fa
:04023c00e0020000dc
:020000040000fa
:04024000e0020000d8
:020000040000fa
:04024400e0020000d4
:020000040000fa
:04024800e0020000d0
:020000040000fa
:04024c00e0020000cc
:020000040000fa
:04025000e0020000c8
:020000040000fa
:04025400e0020000c4
:020000040000fa
:04025800e0020000c0
:020000040000fa
:04025c00e0020000bc
:020000040000fa
:04026000e0020000b8
:020000040000fa
:04026400e0020000b4
:020000040000fa
:100400002f0e21000eff27000e01880000000000c3
:10041000000020000000e000020032000001200087
:10042000200288000c000700e0ad20000100200041
:100430000f000700000020000000e0000200320072
:10044000000002000000000038050200000000006b
:100450000040da000000fe00400220000000e00042
:1004600002003200002020009001880000000600f9
:10047000a1028800800078000000eb001a0037001d
:10048000e280400054a0b4009101ba00e280400034
:1004900054a0b4009102ba00e280400054a0b4001d
:1004a0000002eb00472bde00f507b200a601880032
:1004b000602ce10008003a000049eb000201e8006e
:1004c000020039003420ec0002f0a0008301e900b2
:1004d000f9ff3e00040037006128e100010032000e
:1004e0000082eb000b00070011c3ba001101ba0033
:1004f0000604e00003003a000200e000e0ff3a00da
:1005000000000600f607b200a6028800820078000c
:10051000f5ff370004d0a300e20f49001c003900aa
:10052000810278003549ba000201e8000200390072
:100530003420ec0002f0a0008301e9000f0032003b
:100540002549ba000201e800020039003420ec001d
:1005500002f0a0008301e900080032000400e0007e
:100560000600320015c9ba000201e8000200390095
:100570003420ec0002f0a0008301e9008180e80053
:1005800054a0b4000300e000e2ff3a0000000600bf
:100590009102ba00055978008301e900f7ff3200a3
:1005a000c82ade00055978008301e900f3ff320014
:1005b0000400e000f1ff320011d9ba00eeff37006d
:1005c0000040da000000fe006022b80006022000b1
:1005d0000000d0008180d2000482d2008582d20047
:1005e0000000a0000202520083825a000300310082
:1005f0000202420083824a000000a1000603e900d3
:10060000f3ff3a0000000600889fbe008a9fbe00ec
:1006100030044200b0844a0030054b0090854b0006
:100620006000b1000898be000a90be000440e100de
:1006300005c8e10006d0e10007d8e1000200310062
:10064000680040001008e8004f05be004f04be00df
:1006500000000600889fbe008a9fbe003004be00d6
:100660002005be000418540005985c0006185d00c3
:1006700007985d00110020000440e10005c8e1007a
:1006800006d0e10007d8e100010039008000eb004e
:10069000108810004f05be004f04be000000060089
:1006a0001200fa00889fbe008a9fbe008c9fbe0089
:1006b000e0b79f00f1b79f0082bf9f0093bf9f00ec
:1006c0000605be000404be000000eb00d0b79f008a
:1006d000c0b79f00b0b79f00a0b79f0090b79f0022
:1006e0000006eb005fb19700cfb097008201410098
:1006f0003fb097000200e00004003d003700070013
:100700007e805700c0ff070003003700330007005a
:100710007e805700cfff0700dfb697000d00e00096
:100720000c0035006fb29700ffb297000fbb970027
:100730009fbb970010002000010020006011b8004e
:1007400000027200818272000203730083837300cf
:100750001b0007000c06e80001042000810f560072
:10076000e0ff3a000d00e00004003d000802be007a
:100770000a03be007e805700a3ff07005fa8970012
:100780000000e00005003a001fb29700afb29700ea
:100790003fb39700cfb39700090007006fb09700f1
:1007a000ffb097000fb997009fb997004f06be00a2
:1007b0004f05be004f04be000080fa000000060096
:1007c0000100070000000600a4b79f00b5b79f0016
:1007d000c6b79f00d7b79f00000006004f09de0094
:1007e00082817100b3b79f004f01de00818040001d
:1007f00082807000a1b79f008fb097004f09de0084
:10080000000040000200700090b79f007fa8970092
:100810004f01de00818040008280700081b79f0020
:100820000d0007004f3ade00000040000400700099
:10083000f0af9f00080007000402420085824a00d2
:1008400006034b0087834b00dfff07000802be0052
:100850000a03be00000006002fb29700bfb2970047
:100860004fb39700dfb3970000000600881f7800a1
:1008700018002000881f780089ff07008f87e90093
:100880004f04780000000600801feb0084ff070083
:100890008f87e90000000600889fbe008a9fbe0087
:1008a000e00f5000e08f5800e00f5900e08f590032
:1008b0000c003d006044b8006055b80000005400d2
:1008c00081805c0002015d0083815d0018002000d2
:1008d0001500070008003d00180007000004eb00a9
:1008e000050037000004eb000f00070002003d0088
:1008f0001200070018002000dcff07000800e000dd
:10090000060032006022b8006033b80000005200d8
:1009100081805a0002015b0083815b004f05be00ad
:100920004f04be0000000600e00f5200e08f5a00a6
:10093000e00f5b00e08f5b00000006006044b80041
:100940006055b8000402540085825c0006035d0017
:1009500087835d0000000600889fbe008a9fbe005e
:100960008c1f7800e00f5000e08f5800e00f590016
:10097000e08f59000d003d006044b8006055b8009c
:100980000000540081805c0002015d0083815d00f5
:100990001c0020000820e10009a8e1000ab0e100e5
:1009a0000bb8e1000d003d00080037000006eb0029
:1009b000e00f5200e08f5a00e00f5b00e08f5b0019
:1009c00006003d006044b8006055b80004025400c1
:1009d00085825c0006035d0087835d00aaff070037
:1009e0000c00e000060032006022b8006033b8005e
:1009f0000000520081805a0002015b0083815b008d
:100a00004f0678004f05be004f04be0000000600f0
:100a1000800078003104e000feff3a000080ea0028
:080a2000008040000000060008
:020000040000fa
:100a28002e00000049200000616d000020560000e3
:100a380065720000792000004861000070700000b5
:100a480079200000546f0000205300006565000005
:100a5800205900006f750000203a0000290d0000a1
:080a6800000d00000000000079
:020000040000fa
:100a70005200fa00a902070000202c0011002000fb
:100a80004017980051179800200020002007980078
:100a9000c00420000e004000601798000011800084
:100aa0000010a1000020a100001188002002a90070
:100ab0004e119000de119000100020000100200077
:100ac000800f5100818f590004003a0020a2a80035
:100ad0000000eb00200798009c0037004e119000aa
:100ae000de119000001c2e00410e2000800f5100ee
:100af000818f590003003600100020002007980065
:100b0000920037004e119000de119000800320000b
:100b100001002000800f5100818f590003003e002a
:100b20001000200020079800880037004e11900028
:100b3000de1190000087230091032000800f5100f8
:100b4000818f59003a003e004e119000de11900056
:100b50004418dd00cc10de00810070004410dd0080
:100b60006011b8000203be000002be000080250034
:100b700071842f00d2002000030020003bff0700fb
:100b8000008fbe001e01be0072279800032f980040
:100b9000823e2000ee1190007e2290008e2a90006e
:100ba0001100090042aad800810978008000eb00fa
:100bb000008fbe00ee209000401f2000808f50006c
:100bc0000800360012002000030020001e0f410024
:100bd0005e9749006e209000813e2000008050000a
:100be000602798006e2090008000eb001e01be0080
:100bf00075fe070070179800011f98007e11900085
:100c00008e199000a000200001002000800f5100ec
:100c1000818f590006003e002062a9001e00780066
:100c20000000e900401188000000eb002007980058
:100c30004e119000de119000300e200001002000c7
:100c4000800f5100818f5900400036002e00900027
:100c5000e20f50003d003a004e119000de1190006e
:100c60004218dd00ce10de00810070004210dd0071
:100c70006011b8000203be000002be000080250023
:100c800071842f00d200200003002000f7fe07002f
:100c9000008fbe001e02be0074279800052f98002a
:100ca000823e2000ee1190007e2290008e2a90005d
:100cb0001100090042aad800810978008000eb00e9
:100cc000008fbe00ee209000401f2000808f50005b
:100cd0000800360012002000030020001e0f410013
:100ce0005e9749006e209000813e200000805000f9
:100cf000602798006e2090008000eb001e01be006f
:100d000031fe070070179800011f98007e119000b7
:100d10008e199000a000200001002000800f5100db
:100d2000818f590007003e002062a8001e00780055
:100d30000000e900401188000000eb002007980047
:100d40000200370020002000200798002e009000ad
:100d500010808800001180000080a1000090a10098
:100d6000001188002162a9002182a90020e2a900c7
:100d700021a2a90000118000101180000060a100d4
:100d80000070a0001011880023a2a80023e2a80090
:100d90002042800000c0a10000d0a00000e0a1001f
:100da00020428800304280000000a0000010a00017
:100db0000020a10030428800004380000040a000d5
:100dc0000050a1000060a1000043880000438000a3
:100dd0002082a90023c2a90020c2a900001180001e
:100de000500ea800560ea9005a0ea9005c0ea900cc
:100df000580ea900c0728000502ea900562ea900de
:100e00005a2ea9005c2ea900582ea900c07280009d
:100e1000113a8000f00b2000008160006004200087
:100e200071052000237420008049780081497800f2
:100e3000824978000430ef002036800000407800be
:100e40000074a1008080fb00f0ff2000808f500024
:100e500007003c002136800000f82f0080806000f1
:100e60000006200001007000203688000c003700ca
:100e700020368000004078000074a100f043b200ea
:100e80008080fb00f003200000806000723480004e
:100e900001fc2f00810061000100700070348800a7
:100ea0000630ef0071348000f00f2c00808060006d
:100eb000001020000100700070348800113a80009a
:100ec0000004200001017000600420007105200072
:100ed0002374200080497800814978008249780095
:100ee0000168a9000188a9002168a9002188a9003a
:100ef00021e2a8002342a800101180000000000099
:100f000010118000610060000000e000fcff320072
:100f1000800021007007980040512800000f9800c1
:100f2000006c2c00d1022000101f9800211f980097
:100f30000e089000b6fe0700301f98000040eb003e
:100f4000604798000000eb00400798006000b80080
:100f500050079800610798001e199000ae19900084
:100f6000f06b2c00d1022000800f5100818f5900be
:100f70000300360010c0b30070479800020037002d
:100f80000040eb0070479800ae189000a06220006f
:100f90008089b9001e189000e000b90000014100ee
:100fa0009e189000a06220000008b80001014100d6
:100fb0008200780062004000e0804800101f980026
:100fc000211f980010002000401f98003a003700b1
:100fd00010118000610060000000e00013003a0082
:100fe0007e4090000080fb008000eb005e019000de
:100ff000ee019000020040008380480050079800f6
:10100000610798005e019000ee0190001e189000ac
:10101000ae189000800f5100818f590026003600d5
:10102000800c200040079800230037006000b800c3
:101030005007980061079800ce0090004e1890006d
:101040000080400040079800301180008040780008
:101050007e009000014878007e009000904078006b
:101060000e0890001040780080cf500007003a0032
:101070006e4090000040e800604798000e08900025
:101080000000e800000f9800080037006e40900054
:101090000080fb000000ea008e0890000080400005
:1010a000000f98000040eb00604798007e00900021
:1010b0000000e80070079800ce009000700c20003f
:1010c000808f500005003e006e4090008080fb0045
:1010d0003e189000808f5000bdff390060512800fd
:1010e000100f9800e0012000501f98000030ef0022
:1010f0000f003700111180000020200000806000e8
:101100000000e000fbff3a001e089000104078004d
:101110000000fb00201188001e0890000000e8007d
:10112000100f9800008080000000e8000080880018
:10113000018080005e189000808f5000edff390024
:10114000000d2100200f9800000d210030fe070047
:10115000601f98000030ef000f0037001111800071
:1011600000202000008060000000e000fbff3a004b
:101170002e089000104078000000fb00201188002d
:101180002e0890000000e800200f980000808000ea
:101190000000e80000808800018080006e18900048
:1011a000808f5000edff390080002100300f980043
:1011b0008000210016fe0700701f98000030ef002d
:1011c0000f00370011118000002020000080600017
:1011d0000000e000fbff3a003e089000104078005d
:1011e0000000fb00201188003e0890000000e8008d
:1011f000300f9800008080000000e8000080880028
:10120000018080007e189000808f5000edff390033
:10121000000000001111800000102000008060001c
:101220000000e000fbff3200d00020002011880009
:10123000f004200020118800b00420002011880054
:10124000d0002000201188008000210000179800a5
:101250004051280010179800006c2c00d10220008b
:1012600000279800112798001e109000e8fd070045
:10127000202798000040eb00005f98000000eb0082
:10128000500f98006000b800600f9800710f980030
:101290000e2190009e219000f06b2c00d1022000c6
:1012a000800f5100818f59000300360010c0b30039
:1012b000105f9800020037000040eb00105f9800bc
:1012c0009e209000a06220008089b9000e2090002e
:1012d000e000b900000141008e209000a0622000d3
:1012e0000008b8000101410082007800620040005f
:1012f000e080480000279800112798000000eb00cc
:10130000302798003a00370010118000610060001b
:101310000000e00013003a001e5890000080fb001f
:101320008000eb006e099000fe0990000200400072
:1013300083804800600f9800710f98006e0990003c
:10134000fe0990000e2090009e209000800f51001a
:10135000818f59002600360000a62e00500f9800fd
:10136000230037006000b800600f9800710f9800ec
:10137000de0890003e20900000804000500f980052
:1013800030118000804078000e10900001487800f5
:101390000e109000904078001e10900010407800d1
:1013a00080cf500007003a000e5890000040e8003f
:1013b000005f98001e1090000000e80010179800d1
:1013c000080037000e5890000080fb000000ea0083
:1013d0009e10900000804000101798000040eb0025
:1013e000005f98000e1090000000e80000179800c1
:1013f000de089000f0a52e00808f500005003e0012
:101400000e5890008080fb002e209000808f5000ae
:10141000bdff39005053280020179800100020000d
:10142000402798000030ef000f00370011118000b6
:1014300000202000008060000000e000fbff3a0078
:101440002e109000104078000000fb002011880052
:101450002e1090000000e800201798000080800007
:101460000000e80000808800018080004e2090008d
:10147000808f5000edff3900800021003017980068
:101480008000210062fd0700502798000030ef0027
:101490000f00370011118000002020000080600044
:1014a0000000e000fbff3a003e1090001040780082
:1014b0000000fb00201188003e1090000000e800b2
:1014c00030179800008080000000e800008088004d
:1014d000018080005e209000808f5000edff390079
:1014e0000030ef00080037000080800081002100fc
:1014f000008040008040eb000148780000808000c0
:101500000000e8000080880001808000700c20004e
:10151000808f5000f4ff36004bff37000000fa00c8
:10152000213a800000fe2f0000806000203a8800f1
:10153000a0032000303a8800203a80000060a1001b
:101540000070a100203a88003200200080072000af
:10155000a109200033742000804978008149780077
:1015600082497800120020006004200071052000ec
:1015700023742000804978008149780082497800ee
:1015800000000000113a8000000027008080600009
:1015900000002300808f5000faff3a000000000096
:1015a000113a800000022000008060000000e0008e
:0c15b000fbff32000080fa000000060083
:020000040000fa
:1015bc00d01000001200000082000000477565008a
:1015cc007373200057686f0020616d0020493f0045
:1015dc000d00000008100000c80000008000000092
:1015ec00001000000800000080000000fe0a8000cf
:020000040000fa
:0415fc0000000000eb
:020000040000fa
:0200000401f009
:04000800cfff000026
:020000040000fa
:0200000401f009
:04000c0078ffff007a
:020000040000fa
:0200000401f009
:0400100059ffff0095
:020000040000fa
:0200000401f009
:0400140060ffff008a
:020000040000fa
:0200000401f009
:04001800ffffff00e7
:020000040000fa
:0200000401f009
:04001c00dfffff0003
:020000040000fa
:0200000401f009
:04002000cfffff000f
:00000001FF
