:020000040000fa
:080000000002040000000000f2
:020000040000fa
:10000800d2020000d2020000d2020000d202000098
:10001800d2020000d2020000d2020000d202000088
:10002800d2020000d2020000d2020000d202000078
:10003800d2020000d2020000d2020000d202000068
:020000040000fa
:100400000f0121000eff2d000e01880000000000ea
:10041000000020000000e000020032000001200087
:10042000200288000c000700a048200001002000e6
:100430000f000700000020000000e0000200320072
:100440000000020000000000d602020000000000d0
:100450000040da000000fe00200020000000e00064
:100460000200320010002000900188000000060009
:10047000a1028800800078000000eb001a0037001d
:10048000e280400054a0b4009101ba00e280400034
:1004900054a0b4009102ba00e280400054a0b4001d
:1004a0000002eb00472bde00f507b200a601880032
:1004b000602ce10008003a000049eb000201e8006e
:1004c000020039003420ec0002f0a0008301e900b2
:1004d000f9ff3e00040037006128e100010032000e
:1004e0000082eb00040007001101ba000200e000e6
:1004f000e3ff3a000000060004d0a300e20f490029
:100500001c003900810278003549ba000201e80078
:10051000020039003420ec0002f0a0008301e90061
:100520000f0032002549ba000201e800020039003c
:100530003420ec0002f0a0008301e9000800320042
:100540000400e0000600320015c9ba000201e8000c
:10055000020039003420ec0002f0a0008301e90021
:100560008180e80054a0b4000300e000e2ff3a00fc
:10057000000006009102ba00055978008301e900e5
:10058000f7ff3200c82ade00055978008301e90030
:10059000f3ff32000400e000f1ff320011d9ba008d
:0c05a000eeff37000040da000000fe0013
:020000040000fa
:1005ac000000fa00b0000700000c2000f07088007a
:1005bc00000ea800060ea9000a0ea9000c0ea90038
:1005cc00080ea90040708000002ea900062ea8007d
:1005dc000a2ea8000c2ea900082ea900407080003d
:1005ec00004ea800064ea9000a4ea9000c4ea80009
:1005fc00084ea80040708000900ea800960ea9002e
:10060c009a0ea9009c0ea900980ea900c074800037
:10061c00902ea900962ea8009a2ea8009c2ea90018
:10062c00982ea900c0748000918ea800978ea90006
:10063c009b8ea9009d8ea800998ea800c074800086
:10064c00113a8000f00b2000008160006004200053
:10065c0071052000237420008049780081497800be
:10066c00824978000430ef0040368000004078006a
:10067c000074a1008080fb00f0ff2000808f5000f0
:10068c0007003c004136800000f82f00808060009d
:10069c000004200001007000403688000c00370078
:1006ac0040368000004078000074a100f043b20096
:1006bc008080fb00f003200000806000023480008a
:1006cc0001fc2f00810061000100700000348800e3
:1006dc000630ef000134800000fc2f000080600029
:1006ec005000b300003488000830ef001134800053
:1006fc00f00f2c00808060000010200001007000c2
:10070c00103488000a30ef00a035800000407800db
:10071c000074a1008080fb00f0ff2000808f50004f
:10072c0007003c00a135800000f82f00808060009d
:10073c004006200001007000a03588000c00370036
:10074c00a0358000004078000074a100f043b20096
:10075c008080fb00f0032000008060009234800059
:10076c0001fc2f00810061000100700090348800b2
:10077c000c30ef00c0358000004078000074a10000
:10078c008080fb00f0ff2000808f500006003c00b2
:10079c00c135800000f82f00008060003000b300ed
:1007ac00c035880007003700c03580000040780055
:1007bc000074a1008080fb0000002f00008040002e
:1007cc00608088000e30ef00203680004800de008c
:1007dc000074a1008080fb00f0ff2000808f50008f
:1007ec0005003c0021368000f00f280000806000de
:1007fc002036880007003700203680004800de00d5
:10080c000074a1008080fb0000002f0000804000dd
:10081c0070808800113a80000004200001017000f3
:10082c0060042000710520002374200080497800aa
:10083c0081497800824978000080eb0020708800a4
:10084c00142ea800000000001070800000808800aa
:10085c00907080000000d100614060000080fb00bf
:10086c0010808800f4ff37000000fa00213a800065
:10087c0000fe2f0000806000203a8800a0032000ba
:10088c00303a8800203a80000060a1000070a1007e
:10089c00203a88003200200080072000a1092000a7
:1008ac0033742000804978008149780082497800af
:1008bc001200200060042000710520002374200029
:1008cc008049780081497800824978000000000056
:1008dc00113a800000002700808060000000230097
:1008ec00808f5000faff3a0000000000113a80009f
:1008fc0000022000008060000000e000fbff3200de
:08090c000080fa000000060063
:020000040000fa
:100914000010000010000000800000000000000033
:020000040000fa
:0200000401f009
:04000800cfffff0027
:020000040000fa
:0200000401f009
:04000c0078ffff007a
:020000040000fa
:0200000401f009
:0400100059ffff0095
:020000040000fa
:0200000401f009
:0400140060ffff008a
:020000040000fa
:0200000401f009
:04001800ffffff00e7
:020000040000fa
:0200000401f009
:04001c00dfffff0003
:020000040000fa
:0200000401f009
:04002000cfffff000f
:00000001FF
