:020000040000fa
:080000000002040000000000f2
:020000040000fa
:10000800d2020000d2020000d2020000d202000098
:10001800d2020000d2020000d2020000d202000088
:10002800d2020000d2020000d2020000d202000078
:10003800d2020000d2020000d2020000d202000068
:10004800d2020000d2020000d2020000d202000058
:10005800d2020000d2020000d2020000d202000048
:10006800d2020000d2020000d2020000d202000038
:10007800d2020000d2020000d2020000d202000028
:10008800d2020000d2020000d2020000d202000018
:10009800d2020000d2020000d2020000d202000008
:1000a800d2020000d2020000d2020000d2020000f8
:1000b800d2020000d2020000d2020000d2020000e8
:1000c800d2020000d2020000d2020000d2020000d8
:1000d800d2020000d2020000d2020000d2020000c8
:1000e800d2020000d2020000d2020000d2020000b8
:1000f800d2020000d2020000d2020000d2020000a8
:10010800d2020000f80f0000d2020000d202000064
:10011800d2020000d2020000d2020000d202000087
:10012800d2020000d2020000d2020000d202000077
:10013800d2020000d2020000d2020000d202000067
:10014800d2020000d2020000d2020000d202000057
:10015800d2020000d2020000d2020000d202000047
:10016800d2020000d2020000d2020000d202000037
:10017800d2020000d2020000d2020000d202000027
:10018800d2020000d2020000d2020000d202000017
:10019800d2020000d202000000100000d2020000cb
:1001a800d2020000d2020000d2020000d2020000f7
:1001b800d2020000d2020000d2020000d2020000e7
:1001c800d2020000d2020000d2020000d2020000d7
:1001d800d2020000d2020000d2020000d2020000c7
:1001e800d2020000d2020000d2020000d2020000b7
:1001f800d2020000d2020000d2020000d2020000a7
:10020800d2020000d2020000d2020000d202000096
:10021800d2020000d2020000d2020000d202000086
:10022800d2020000d2020000d2020000d202000076
:10023800d2020000d2020000d2020000d202000066
:10024800d2020000d2020000d2020000d202000056
:10025800d2020000d2020000d2020000d202000046
:020000040000fa
:10040000af0021000eff2d000e018800000000004b
:10041000000020000000e000020032000001200087
:10042000200288000c000700800521000100200048
:100430000f000700000020000000e0000200320072
:100440000000020000000000d602020000000000d0
:100450000040da000000fe00200020000000e00064
:100460000200320010002000900188000000060009
:10047000a1028800800078000000eb001a0037001d
:10048000e280400054a0b4009101ba00e280400034
:1004900054a0b4009102ba00e280400054a0b4001d
:1004a0000002eb00472bde00f507b200a601880032
:1004b000602ce10008003a000049eb000201e8006e
:1004c000020039003420ec0002f0a0008301e900b2
:1004d000f9ff3e00040037006128e100010032000e
:1004e0000082eb00040007001101ba000200e000e6
:1004f000e3ff3a000000060004d0a300e20f490029
:100500001c003900810278003549ba000201e80078
:10051000020039003420ec0002f0a0008301e90061
:100520000f0032002549ba000201e800020039003c
:100530003420ec0002f0a0008301e9000800320042
:100540000400e0000600320015c9ba000201e8000c
:10055000020039003420ec0002f0a0008301e90021
:100560008180e80054a0b4000300e000e2ff3a00fc
:10057000000006009102ba00055978008301e900e5
:10058000f7ff3200c82ade00055978008301e90030
:10059000f3ff32000400e000f1ff320011d9ba008d
:0c05a000eeff37000040da000000fe0013
:020000040000fa
:1005ac006200fa00970607000002eb00040f7800c7
:1005bc000002eb0014079800140020002407980098
:1005cc000002eb00340798001e029000e10f42007d
:1005dc0005003a0014608000044278006742620013
:1005ec000482fb00140798002e029000e10f4200d9
:1005fc0006003a0004608000044278006f426200fa
:10060c000482fb000402e800240798003e029000dc
:10061c00e10f420005003a00046080004a22de002f
:10062c00614262000482fb00340798000560800080
:10063c000400280004826200e00f520029003a00f6
:10064c001e02900004427800674262000482fb00a4
:10065c00670262001660800085ff2f008502630030
:10066c0005027200146088002e0290000402e9005a
:10067c00240798002e029000ef0f52000b003e0052
:10068c002e029000044278006f4262000482fb004c
:10069c006f0262000660800005ff2f008502630078
:1006ac00050272000460880002003700440020003c
:1006bc00040f78003e029000044278006142620010
:1006cc000482fb00610262004a22dd0006608000a9
:1006dc00f5bf2f00850263000502720004608800dc
:1006ec001b003700146080000442780067426200ef
:1006fc008482fb001e029000848f520002003200a4
:10070c0014002000040f780004608000044278007c
:10071c006f4262008482fb002e029000848f520094
:10072c000200320024002000040f780004608000d6
:10073c004a22de00614262008482fb003e0290008d
:10074c00848f52000200320034002000040f780025
:10075c00045327002460880084202500346088001e
:10076c001e027800048088000002eb004407980009
:10077c000002eb0054079800140020006407980056
:10078c0024002000740798000002eb00040f98006e
:10079c000002eb00140f98005e029000e10f420083
:1007ac0005003a00146180004a22de0063426200b8
:1007bc000482fb00540798006e029000e10f420087
:1007cc0005003a00046180004222de0061426200b2
:1007dc000482fb00640798007e029000e10f420047
:1007ec000d003a00056180000420200004826200a4
:1007fc00e00f520003003200240020007407980020
:10080c0005003700046180004322de006142620073
:10081c000482fb00740798000e0a9000e10f42005e
:10082c0005003a00046180004822de00614262004b
:10083c000482fb00040f98001e0a9000e10f420096
:10084c0005003a00046180000442780061426200b5
:10085c000482fb00140f980005608000040028003f
:10086c0004826200e00f520056003a005e029000d3
:10087c0004427800634262000482fb00630262005f
:10088c004a22dd0016618000f53f2f0085026300cf
:10089c0005027200146188006e0290000442780018
:1008ac00614262000482fb00610262004222dd00b0
:1008bc0006618000b5ff2f008502630005027200ff
:1008cc00046188006e02900004427800614262006c
:1008dc000482fb00610262004922dd000661800097
:1008ec00f5df2f00850263000502720004618800a9
:1008fc007e029000e10f52000e003200e10f520018
:10090c0003003900e20f52001300320017003700c9
:10091c000461800064026200e00f520002003a00a1
:10092c00206ca90011003700240020004407980017
:10093c000e0037000461800064026200e00f520078
:10094c0002003a00206ca800080037003400200098
:10095c004407980005003700212ca80084082900c2
:10096c00446188000002eb00846188000e0a90004c
:10097c0004427800614262000482fb006102620062
:10098c004822dd0006618000f5ef2f008502630030
:10099c0005027200046188001e0a9000044278006f
:1009ac00614262000482fb00610262000661800009
:1009bc00e5ff2f00850263000502720004618800c8
:1009cc000200370014002000440798004e029000eb
:1009dc000480880023eca80023cca80023aca90039
:1009ec00238ca900222ca900232ca900230ca900dc
:1009fc000002eb00240f9800046180006402620086
:100a0c00e00f520005003a000002eb004461880040
:100a1c000002eb0084618800020037001400200003
:100a2c00240f98000002eb00340f98000002eb003a
:100a3c00440f98004e0a9000e10f42000f003a005c
:100a4c00046180004622de00634262000482fb00e7
:100a5c00440f98004e0a9000e30f520007003a0032
:100a6c00056180000402200004826200e00f520045
:100a7c000200320044002000440f98004e0a9000ff
:100a8c00050020004600200007002000860f5200c1
:100a9c00878f5a0044003e000406010020003700f6
:100aac002a0037003a0037000f00370000003700eb
:100abc001561800004c0200004826200e00f520027
:100acc000300320014002000340f98003600370069
:100adc00046180000460a0000470a0000461880020
:100aec0020aca800300037001561800004c0200045
:100afc0004826200e00f5200030032001400200058
:100b0c00340f980028003700046180000460a000b6
:100b1c000470a0000461880020aca90022003700fa
:100b2c00046180000460a1000470a10004618800cd
:100b3c000461800064026200e00f52001900320070
:100b4c0034002000340f9800170037001561800026
:100b5c0004c0200004826200e00f520009003a0039
:100b6c000461800064026200e00f520005003a004c
:100b7c00046180000460a0000470a100046188007e
:100b8c000900370024002000340f980006003700bd
:100b9c00046180000460a1000470a100046188005d
:100bac000100370000000000043c20005461880064
:100bbc00043c2000646188003e0a90000480880098
:100bcc000002eb00540f9800046180004922de0003
:100bdc00614262000482fb00e10f52000a003a00fd
:100bec004561800004962000848f5200030036007b
:100bfc0004962000946188001a003700340020000d
:100c0c00540f9800170037000461800068026200de
:100c1c00e00f52000a00320095608000049620001c
:100c2c00848f5200030036000496200094618800e3
:100c3c000c00370024002000540f980009003700e6
:100c4c002560800004962000848f5200030036003b
:100c5c0004962000946188000200370014002000e4
:100c6c00540f9800a561800004fc2f0004826200e0
:100c7c000440a000a4618800a461800004c0a1000d
:100c8c0004d0a10004e0a10004f0a100a46188003c
:100c9c005e0a9000048088000002eb00640f98004c
:100cac000002eb00740f98000002eb000417980090
:100cbc000002eb001417980025eca80025618000b9
:100ccc0074f02f008482620004052000050272007b
:100cdc002461880014c0b30004437800250021006f
:100cec00864a78007e0a9000e10f420005003a0027
:100cfc00146180004522de00614262000482fb0028
:100d0c00740f98000e129000e10f420005003a009b
:100d1c00146180004422de00614262000482fb0008
:100d2c00041798001e129000e10f420005003a00d3
:100d3c00246180004222de00614262000482fb00da
:100d4c0014179800056080000400280004826200db
:100d5c00e00f520022003a007e0a90000442780014
:100d6c00614262000482fb00610262004522dd00e8
:100d7c0016618000f5fd2f008502630005027200ec
:100d8c00146188000e1290000442780061426200e7
:100d9c000482fb00610262004422dd0016618000c7
:100dac00f5fe2f00850263000502720014618800b5
:100dbc001e12900004427800614262000482fb0023
:100dcc00610262004222dd0026618000b5ff2f0027
:100ddc008502630005027200246188001b00370045
:100dec00246180004222de00614262008482fb00aa
:100dfc001e129000848f520002003200140020005a
:100e0c00640f9800146180004522de00614262008c
:100e1c008482fb007e0a9000848f52000200320014
:100e2c0024002000640f9800146180004422de002e
:100e3c00614262008482fb000e129000848f52008b
:100e4c000200320034002000640f98006e0a9000fb
:100e5c00048088000002eb0024179800226ca90083
:100e6c00256180000400280004826200e00f52001b
:100e7c00020032002400200024179800224ca90004
:100e8c00256180000400280004826200e00f5200fb
:100e9c0002003200240020002417980025618000f5
:100eac00f43f280084826200044022000502720094
:100ebc002461880005608000040028000482620020
:100ecc00e00f520002003a00252ca8000700370062
:100edc00256180000420200004826200e00f520093
:100eec0002003a0014002000241798002e129000e3
:100efc00048088003beca8003bcca8003baca800cd
:100f0c003b8ca800e43d2000e46188003a6ca8000a
:100f1c003a4ca9003a2ca9003a0ca8003aaca8000b
:100f2c003a8ca900f46180000480a0000490a10018
:100f3c0004a0a10004b0a100f46188000002eb0041
:100f4c00341798000002eb0044179800140020009e
:100f5c005417980024002000641798000002eb003e
:100f6c00741798000002eb00041f98004e129000ba
:100f7c00e10f420005003a00146280004a22de00b4
:100f8c00634262000482fb00441798005e129000da
:100f9c00e10f420005003a00046280004222de00ac
:100fac00614262000482fb00541798006e1290009c
:100fbc00e10f42000d003a00056280000420200081
:100fcc0004826200e00f5200030032002400200073
:100fdc006417980005003700046280004322de008d
:100fec00614262000482fb00641798007e1290003c
:100ffc00e10f420005003a00046280004822de0046
:10100c00614262000482fb00741798000e1a900073
:10101c00e10f420005003a000462800004427800af
:10102c00614262000482fb00041f9800056080008e
:10103c000400280004826200e00f520056003a00bf
:10104c004e12900004427800634262000482fb005e
:10105c00630262004a22dd0016628000f53f2f0019
:10106c008502630005027200146288005e12900013
:10107c0004427800614262000482fb00610262005b
:10108c004222dd0006628000b5ff2f00850263005e
:10109c0005027200046288005e129000044278001f
:1010ac00614262000482fb00610262004922dd00a1
:1010bc0006628000f5df2f008502630005027200d6
:1010cc00046288006e129000e10f52000e00320094
:1010dc00e10f520003003900e20f520013003200fe
:1010ec00170037000462800064026200e00f5200b7
:1010fc0002003a00406ca9001100370024002000c7
:10110c00341798000e0037000462800064026200fd
:10111c00e00f520002003a00406ca80008003700b3
:10112c00340020003417980005003700412ca8002b
:10113c0084082900446288000002eb008462880065
:10114c007e12900004427800614262000482fb002f
:10115c00610262004822dd0006628000f5ef2f007c
:10116c008502630005027200046288000e1a90006a
:10117c0004427800614262000482fb00610262005a
:10118c0006628000e5ff2f008502630005027200f5
:10119c000462880002003700140020003417980005
:1011ac003e1290000480880043eca80043cca800b9
:1011bc0043aca900438ca900422ca900432ca900e4
:1011cc00430ca9000002eb00141f9800046280007d
:1011dc0064026200e00f520005003a000002eb00ce
:1011ec00446288000002eb00846288000200370031
:1011fc0014002000141f98000002eb00241f98001c
:10120c000002eb00341f98003e1a9000e10f4200e0
:10121c000f003a00046280004622de006342620046
:10122c000482fb00341f98003e1a9000e30f52001a
:10123c0007003a000562800004022000048262006c
:10124c00e00f52000200320044002000341f9800ce
:10125c003e1a9000050020004600200007002000e8
:10126c00860f5200878f5a0044003e00040601008e
:10127c00200037002a0037003a0037000f003700f3
:10128c00000037001562800004c020000482620058
:10129c00e00f52000300320014002000241f9800bd
:1012ac0036003700046280000460a0000470a000c7
:1012bc000462880040aca800300037001562800042
:1012cc0004c0200004826200e00f520003003200d0
:1012dc0014002000241f98002800370004628000ae
:1012ec000460a0000470a0000462880040aca90057
:1012fc0022003700046280000460a1000470a10089
:10130c00046288000462800064026200e00f5200f4
:10131c001900320034002000241f980017003700f9
:10132c001562800004c0200004826200e00f5200ad
:10133c0009003a000462800064026200e00f52006f
:10134c0005003a00046280000460a0000470a10053
:10135c00046288000900370024002000241f980034
:10136c0006003700046280000460a1000470a10034
:10137c00046288000100370000000000043c2000db
:10138c0054628800043c2000646288002e1a90008d
:10139c00048088000002eb00441f98000462800067
:1013ac004922de00614262000482fb00e10f520020
:1013bc000a003a004562800004962000848f520097
:1013cc000300360004962000946288001a0037004f
:1013dc0034002000441f980017003700046280007e
:1013ec0068026200e00f52000a0032009560800033
:1013fc0004962000848f52000300360004962000cf
:10140c00946288000c00370024002000441f9800d0
:10141c00090037002560800004962000848f52005c
:10142c000300360004962000946288000200370006
:10143c0014002000441f9800a562800004fc2f00bb
:10144c00048262000440a000a4628800a4628000b0
:10145c0004c0a10004d0a10004e0a10004f0a1008c
:10146c00a46288004e1a9000048088000002eb00f1
:10147c00541f98000002eb00641f98000002eb0060
:10148c00741f98000002eb000427980045eca8009c
:10149c002562800074f02f00848262000405200015
:1014ac00050272002462880014c0b3000443780063
:1014bc0035002100864a78006e1a9000e10f420038
:1014cc0005003a00146280004522de006142620091
:1014dc000482fb00641f98007e1a9000e10f42000a
:1014ec0005003a00146280004422de006142620072
:1014fc000482fb00741f98000e229000e10f420042
:10150c0005003a00246280004222de006142620043
:10151c000482fb000427980005608000040028006a
:10152c0004826200e00f520022003a006e1a900012
:10153c0004427800614262000482fb006102620096
:10154c004522dd0016628000f5fd2f008502630048
:10155c0005027200146288007e1a90000442780022
:10156c00614262000482fb00610262004422dd00e1
:10157c0016628000f5fe2f008502630005027200e2
:10158c00146288000e2290000442780061426200ce
:10159c000482fb00610262004222dd0026628000b0
:1015ac00b5ff2f00850263000502720024628800db
:1015bc001b003700246280004222de006142620080
:1015cc008482fb000e229000848f520002003200b5
:1015dc0014002000541f9800146280004522de0085
:1015ec00614262008482fb006e1a9000848f52006c
:1015fc000200320024002000541f98001462800066
:10160c004422de00614262008482fb007e1a90005c
:10161c00848f52000200320034002000541f9800c6
:10162c005e1a9000048088000002eb0014279800da
:10163c00426ca9002562800004002800048262002c
:10164c00e00f520002003200240020001427980002
:10165c00424ca9002562800004002800048262002c
:10166c00e00f5200020032002400200014279800e2
:10167c0025628000f43f280084826200044022002e
:10168c0005027200246288000560800004002800b6
:10169c0004826200e00f520002003a00452ca800c0
:1016ac0007003700256280000420200004826200bd
:1016bc00e00f520002003a0014002000142798009a
:1016cc001e229000048088005beca8005bcca80074
:1016dc005baca8005b8ca800e43d2000e4628800b1
:1016ec005a6ca8005a4ca9005a2ca9005a0ca800f4
:1016fc005aaca8005a8ca900f46280000480a000a7
:10170c000490a10004a0a10004b0a100f462880020
:10171c000002eb00242798000002eb00342798000d
:10172c00140020004427980024002000542798001f
:10173c000002eb00642798000002eb00742798006d
:10174c003e229000e10f420005003a001463800035
:10175c004a22de00634262000482fb0034279800b8
:10176c004e229000e10f420005003a000463800015
:10177c004222de00614262000482fb004427980092
:10178c005e229000e10f42000d003a0005638000dc
:10179c000420200004826200e00f5200030032009b
:1017ac0024002000542798000500370004638000b3
:1017bc004322de00614262000482fb005427980041
:1017cc006e229000e10f420005003a000463800095
:1017dc004822de00614262000482fb00642798000c
:1017ec007e229000e10f420005003a000463800065
:1017fc0004427800614262000482fb007427980066
:10180c00056080000400280004826200e00f520092
:10181c0056003a003e229000044278006342620077
:10182c000482fb00630262004a22dd001663800022
:10183c00f53f2f00850263000502720014638800d7
:10184c004e22900004427800614262000482fb0048
:10185c00610262004222dd0006638000b5ff2f00aa
:10186c008502630005027200046388004e2290001a
:10187c0004427800614262000482fb006102620053
:10188c004922dd0006638000f5df2f00850263002e
:10189c0005027200046388005e229000e10f520082
:1018ac000e003200e10f520003003900e20f52002b
:1018bc0013003200170037000463800064026200da
:1018cc00e00f520002003a00606ca90011003700d2
:1018dc0024002000242798000e00370004638000a9
:1018ec0064026200e00f520002003a00606ca80033
:1018fc00080037003400200024279800050037002a
:10190c00612ca80084082900446388000002eb00c5
:10191c00846388006e229000044278006142620069
:10192c000482fb00610262004822dd000663800035
:10193c00f5ef2f0085026300050272000463880036
:10194c007e22900004427800614262000482fb0017
:10195c006102620006638000e5ff2f0085026300d0
:10196c000502720004638800020037001400200096
:10197c00242798002e2290000480880063eca80095
:10198c0063cca80063aca900638ca900622ca900ed
:10199c00632ca900630ca9000002eb00042f980033
:1019ac000463800064026200e00f520005003a00fc
:1019bc000002eb00446388000002eb0084638800a3
:1019cc000200370014002000042f98000002eb00e6
:1019dc00142f98000002eb00242f98002e2a900060
:1019ec00e10f42000f003a00046380004622de0043
:1019fc00634262000482fb00242f98002e2a900080
:101a0c00e30f520007003a00056380000402200037
:101a1c0004826200e00f52000200320044002000f9
:101a2c00242f98002e2a900005002000460020004c
:101a3c0007002000860f5200878f5a0044003e009a
:101a4c0004060100200037002a0037003a00370056
:101a5c000f003700000037001563800004c0200021
:101a6c0004826200e00f52000300320014002000d8
:101a7c00142f980036003700046380000460a00027
:101a8c000470a0000463880060aca800300037002c
:101a9c001563800004c0200004826200e00f520035
:101aac000300320014002000142f98002800370087
:101abc00046380000460a0000470a000046388002c
:101acc0060aca90022003700046380000460a10010
:101adc000470a10004638800046380006402620047
:101aec00e00f52001900320034002000142f98002f
:101afc00170037001563800004c0200004826200c8
:101b0c00e00f520009003a00046380006402620096
:101b1c00e00f520005003a00046380000460a0004e
:101b2c000470a10004638800090037002400200021
:101b3c00142f980006003700046380000460a10095
:101b4c000470a1000463880001003700000000004d
:101b5c00043c200054638800043c2000646388002b
:101b6c001e2a9000048088000002eb00342f98009d
:101b7c00046380004922de00614262000482fb00a3
:101b8c00e10f52000a003a004563800004962000e1
:101b9c00848f520003003600049620009463880062
:101bac001a00370034002000342f9800170037003b
:101bbc000463800068026200e00f52000a003200e9
:101bcc009560800004962000848f5200030036003c
:101bdc0004962000946388000c0037002400200039
:101bec00342f9800090037002560800004962000ef
:101bfc00848f520003003600049620009463880002
:101c0c000200370014002000342f9800a5638000d8
:101c1c0004fc2f00048262000440a000a46388002e
:101c2c00a463800004c0a10004d0a10004e0a100c2
:101c3c0004f0a100a46388003e2a90000480880070
:101c4c000002eb00442f98000002eb00542f980088
:101c5c000002eb00642f98000002eb00742f980038
:101c6c0065eca8002563800074f02f00848262006c
:101c7c0004052000050272002463880014c0b30020
:101c8c000443780045002100864a78005e2a9000c3
:101c9c00e10f420005003a00146380004522de008b
:101cac00614262000482fb00542f98006e2a90005f
:101cbc00e10f420005003a00146380004422de006c
:101ccc00614262000482fb00642f98007e2a90001f
:101cdc00e10f420005003a00246380004222de003e
:101cec00614262000482fb00742f98000560800042
:101cfc000400280004826200e00f520022003a0027
:101d0c005e2a900004427800614262000482fb006b
:101d1c00610262004522dd0016638000f5fd2f0094
:101d2c008502630005027200146388006e2a90001d
:101d3c0004427800614262000482fb00610262008e
:101d4c004422dd0016638000f5fe2f00850263003f
:101d5c0005027200146388007e2a90000442780009
:101d6c00614262000482fb00610262004222dd00db
:101d7c0026638000b5ff2f00850263000502720008
:101d8c00246388001b003700246380004222de009d
:101d9c00614262008482fb007e2a9000848f520094
:101dac000200320014002000442f980014638000bd
:101dbc004522de00614262008482fb005e2a9000b4
:101dcc00848f52000200320024002000442f98001f
:101ddc00146380004422de00614262008482fb00b6
:101dec006e2a9000848f52000200320034002000d2
:101dfc00442f98004e2a9000048088000002eb00cb
:101e0c0004379800626ca900256380000400280048
:101e1c0004826200e00f5200020032002400200015
:101e2c0004379800624ca900256380000400280048
:101e3c0004826200e00f52000200320024002000f5
:101e4c000437980025638000f43f280084826200e8
:101e5c0004402200050272002463880005608000a3
:101e6c000400280004826200e00f520002003a00d5
:101e7c00652ca80007003700256380000420200093
:101e8c0004826200e00f520002003a0014002000ad
:101e9c00043798000e329000048088007beca80078
:101eac007bcca8007baca8007b8ca800e43d200078
:101ebc00e46388007a6ca8007a4ca9007a2ca900fb
:101ecc007a0ca8007aaca8007a8ca900f463800084
:101edc000480a0000490a10004a0a10004b0a10003
:101eec00f4638800016ca8002728a8003441800006
:101efc00e44280000440a1000450a1000460a00052
:101f0c00e4428800214ca800218ca8002400210068
:101f1c0014427800634262000482fb006302620098
:101f2c0026618000c5ff2f00850263000502720048
:101f3c00246188003400210014427800634262005e
:101f4c000482fb006302620026628000c5ff2f0042
:101f5c00850263000502720024628800440021009f
:101f6c0014427800634262000482fb006302620048
:101f7c0026638000c5ff2f008502630005027200f6
:101f8c0024638800216ca800250ca800450ca8002f
:101f9c00650ca8002bc8a800744380000480a00026
:101fac000490a00004a0a100744388003b6ca8001e
:101fbc005b6ca8007b6ca8003b4ca8005b4ca80099
:101fcc007b4ca80084a92300346188000471220092
:101fdc0034628800843821003463880000000000db
:101fec00feff37000000fa000728a9000080fa0065
:101ffc00004006000000fa000bc8a9000080fa009f
:10200c00004006000000fa00253a800004fe2f0074
:10201c0004826200243a8800a4032000343a880029
:10202c00243a80000460a1000470a100243a8800c6
:10203c003600200084072000a509200037742000fa
:10204c00844b7800854b7800864b78001600200076
:10205c00640420007505200027742000844b780050
:10206c00854b7800864b780000000000153a800004
:10207c00040027008482620004002300848f520035
:10208c00faff3a0000000000153a8000040220001c
:10209c0004826200e00f5200fbff32000080fa0065
:0420ac00000006002a
:020000040000fa
:1020b000001000000a000000800000000000000086
:020000040000fa
:0200000401f009
:04000800cfffff0027
:020000040000fa
:0200000401f009
:04000c0078ffff007a
:020000040000fa
:0200000401f009
:0400100059ffff0095
:020000040000fa
:0200000401f009
:0400140060ffff008a
:020000040000fa
:0200000401f009
:04001800ffffff00e7
:020000040000fa
:0200000401f009
:04001c00dfffff0003
:020000040000fa
:0200000401f009
:04002000cfffff000f
:00000001FF
